:1000000025C03FC03EC03DC03CC03BC03AC039C027
:1000100038C037C059C635C034C033C032C0424F73
:100020004F5400000000000000000000000000002D
:10003000000000545231E803D007000080E803D0EC
:1000400007000080E803D0070000800011241FBED5
:10005000CFE5D2E0DEBFCDBF10E0A0E6B0E0E6EA3B
:10006000FFE002C005900D92AE36B107D9F710E05F
:10007000AEE6B0E001C01D92A13CB107E1F792D518
:1000800090C7BECF0F920FB60F921F935F933F930F
:10009000AF93BF93A82FB92F1127552737E0882793
:1000A0009927AA95BB9ABC98F8945395B49955276B
:1000B000B4995527B4995527B4995527B49955271C
:1000C000B4995527B4995527B4995527573209F053
:1000D000ECCF5527B49923C0B49921C0B4991FC05F
:1000E000B4991DC0B4991BC0B49919C0B49917C074
:1000F000B49915C0EFCFB49912C0B49910C0B49997
:100100000EC0B4990CC0B4990AC0B49908C0B4998F
:1001100006C0B49904C053955F3F69F757C03823B0
:1001200009F4A395B49B15C0110F11601C93B49BE7
:1001300013C0B49B11C0B49B0FC0B49B0DC0B49B43
:100140000BC0B49B09C0B49B07C053955F3F79F7C0
:100150003DC0110F1C93000037E08395861759F6B8
:10016000B49912C0B49910C0B4990EC0B4990CC01F
:10017000B4990AC0B49908C0B49906C0B49904C02F
:1001800053955A3269F722C0C39A5527B49B15C0BC
:10019000019600000000B49B16C0B49B14C0B49B31
:1001A00012C0B49B10C0B49B0EC0B49B0CC0B49BD7
:1001B0000AC053955F3F79F709C0C3985527019648
:1001C00000000000CDCFC3985527CACFBF91AF9193
:1001D0003F915F911F910F900FBE0F9008950F9266
:1001E0000FB60F927F93AF93BF93F89478B3782BA9
:1001F000762B742B78BBD9011197F1F778B3782758
:1002000078BBD8011197F1F778B3762778BBD7017F
:100210001197F1F778B3742778BBBF91AF917F91B5
:100220000F900FBE0F90089548E350E05093910057
:100230004093900081E08093920020EC3DE5309364
:1002400094002093930050939E0040939D0082E081
:1002500080939F003093A1002093A0005093AB00A7
:100260004093AA0084E08093AC003093AE002093CA
:10027000AD0087B3876087BB88B3887F88BB08954C
:10028000EF92FF921F93CF93DF93C0917500D091AF
:100290007600209709F468C080917A0090917B00E5
:1002A000892B09F461C020917800822F869586956C
:1002B0008695FE01E80FF11D277080E890E002C0EE
:1002C000959587952A95E2F710811823609179001A
:1002D00070E080E090E020E83EE340E050E004D6AB
:1002E0002CE096958795779567952A95D1F7DB0150
:1002F0005091770020E030E080E8E82EF12C01C03A
:10030000182F2A0F3B1F809178008F5F652F05D62D
:10031000492F90937800892F869586958695FE01C2
:10032000E80FF11DE08180917A0090917B000197A8
:1003300090937B0080937A00892B81F04770C701EE
:1003400002C0959587954A95E2F78E23112319F0FF
:100350008823B1F60BC0882399F202C0112331F42F
:10036000309521953F4F02C020E030E0C901DF9178
:10037000CF911F91FF90EF9008958091990088236D
:1003800021F440E050E06FEF05C0409193005091A0
:10039000940060E08091A600882349F02091A0009D
:1003A0003091A1002417350710F061E001C09A01D7
:1003B0008091B300882341F08091AD009091AE0010
:1003C0008217930708F062E0862F08950F931F931A
:1003D0000FB580917000801718F4102F181B03C000
:1003E000182F1095100F20916200309163001216A3
:1003F0001306BCF4812F90E0821793073CF4281B6E
:10040000390B30936300209362002CC0C59838DF0D
:100410009093630080936200892B21F58EEB90EF1F
:100420001DC021153105F1F0412F50E08827992793
:10043000841B950B281739073CF4420F531F509328
:100440006300409362000EC0C59A1ADF9093630068
:1004500080936200892B31F482E49FE090936300E3
:10046000809362008091600090916100212F30E0C4
:100470002817390738F4821B930B909361008093FF
:10048000600004C010926100109260000093700040
:100490001F910F910895AC0180917C0090917D0097
:1004A0004817590771F4809180008F3F61F08F5F8A
:1004B000809380008A3038F050937F0040937E0014
:1004C00002C01092800020917E0030917F00421780
:1004D000530711F481E0089580E0232B09F481E0B3
:1004E0000895DF92EF92FF920F931F93CF93DF93C4
:1004F0007B018A01D22E882379F0EB012696CE016A
:10050000DFD4D81619F0CE016D2DC4D4F801608166
:1005100062FD0BC0646005C0FA01608162FF05C026
:100520006B7F6083C7010596B5D4DF91CF911F9192
:100530000F91FF90EF90DF9008952F923F924F928E
:100540005F926F927F928F929F92AF92BF92CF9263
:10055000DF92EF92FF920F931F93DF93CF93CDB76C
:10056000DEB72C970FB6F894DEBF0FBECDBF8887DD
:100570006B012A012987B02EEA86CA0105969F835E
:100580008E839ED48983F6010580F681E02DFB835E
:10059000EA834B865C86C2017FD43C01C20102968D
:1005A0009D838C8379D44C0154E0252E312C240C6E
:1005B000351CC10185D4A82E9985E92EFF24870119
:1005C000077010700115110519F10430110504F5BB
:1005D0009FB580916F00891718F4981B892F02C06E
:1005E0008095890F90E0A0E0B0E04CE0880F991F63
:1005F000AA1FBB1F4A95D1F78059994AA340B04022
:1006000020F081E0F601838716C0F601138613C03F
:10061000F6011386818190E087709070009759F001
:1006200004974CF481E0B201AE014F5F5F4F2B2D78
:1006300058DFF601148603301105D9F00430110596
:100640002CF40230110509F089C008C004301105EE
:10065000D9F00530110509F081C04CC0F601818147
:100660008770823021F0F60110861782118621E012
:1006700076C0F60181818770833021F0F601108603
:100680001782118622E06BC0E3FE68C0F60181810B
:10069000282F30E0C90187709070049709F05EC080
:1006A00023FD5CC0FA85F53131F0FA3909F056C006
:1006B000C1016B2D09C08981682F609561708E7FA3
:1006C000682B69838E819F81E5D388E180937700D1
:1006D0001092780084E18093790086E990E090930D
:1006E0007B0080937A008BE690E090937600809375
:1006F000750093C1E3FE32C0F6018181282F30E0FE
:10070000C90187709070059749F523FD27C0FA85C8
:100710002F2F30E09B2D80E0282B392B8AE52E39B6
:10072000380791F099EE2A38390721F025573641DC
:10073000A9F405C08885FCD225E630E05CC18FEFC6
:10074000F7D227E630E057C180E0B201AE014F5F3B
:100750005F4F2B2DC6DE29E630E04DC120E08981B8
:1007600080FDB094AA20C9F0F60130814B2D50E0F5
:10077000832F90E06A2D70E0B31640F0481B590BB0
:100780006417750754F4BA2CB30E07C0841B950B7D
:100790006817790714F4B32EBA18FA856F2F70E032
:1007A0008614970448F09B2D80E0A4014619570950
:1007B000862B972BB30108C09B2D80E0A30148191D
:1007C0005909862B972BB40140D2F6019683858375
:1007D0000130110549F0013011050CF4D6C0043088
:1007E00011050CF0D2C03BC0F6018285833008F0C1
:1007F000CCC0898182FF1BC082010A5F1F4FC801E4
:100800005FD3B81611F483E015C0C80159D3B816E8
:1008100030F4F6018285823051F081E00BC0C801CE
:100820004FD38B1548F4F6018285813011F483E0B3
:1008300002C082E0F60182878091600090916100A1
:10084000892B09F4A2C0F6018285833008F09DC08F
:100850008A819B81968385831386B08096C0F6013A
:100860000581168134E0169507953A95E1F7818563
:10087000882349F58614970438F00615170550F0BB
:100880008016910638F01FC06016710618F0081522
:100890001905C8F48A819B81F601968385831386A6
:1008A000B08080917A0090917B00892B09F06DC017
:1008B00088E080937700109278008AE08093790036
:1008C00084E690E052C081E0F6018187E3FE3DC0FE
:1008D000818190E0E826F926F7E0EF22FF24EF2857
:1008E000A1F583FD32C0F601678170856115710540
:1008F00019F41087078349C08B859C85BDD28C81F4
:100900009D81B801B9D2F6011086178211866981DE
:10091000626069838E819F81BDD280E0B201AE01A9
:100920004F5F5F4F2B2DDDDD88E1809377001092C4
:10093000780084E18093790086E990E090937B00D1
:1009400080937A008BE690E016C080917A009091B7
:100950007B00892BD1F488E0809377001092780097
:1009600082E38093790084E190E090937B00809310
:100970007A0084E690E0909376008093750081E0A1
:1009800090E09093630080936200F6018385882352
:10099000A9F080818B1581F48485833310F48F5FF7
:1009A0008487F6018485823349F481E0B201AE0187
:1009B0004F5F5F4F2B2D95DDF6011486F601B08257
:1009C000298521832C960FB6F894DEBF0FBECDBFCC
:1009D000CF91DF911F910F91FF90EF90DF90CF901B
:1009E000BF90AF909F908F907F906F905F904F904F
:1009F0003F902F90089580E18093770010927800C7
:100A000082E38093790084E690E090937B0080936A
:100A10007A00309376002093750081E090E0909307
:100A20006300809362009ACECF92DF92EF92FF92A2
:100A30000F931F936C0180E06EE870E043E050E09C
:100A4000F60120810181E28078DD81E06BE970E0D0
:100A50004AE050E0F60123810481E5806EDD82E00A
:100A600068EA70E041E150E0F60126810781E08408
:100A700064DD83DC382F8F3F09F48DC090E06DE09A
:100A800070E020D2FC01E257FF4F4481832F90E0B9
:100A90006DE070E017D2FC01E257FF4FE580F68071
:100AA00020E0332309F421E0822F90E06DE070E034
:100AB00009D2FC01E257FF4F8385882321F4B0E07F
:100AC00000E010E018C0822F90E06DE070E0FAD1F5
:100AD000FC01E257FF4FB481822F90E06DE070E09F
:100AE000F1D1FC01E257FF4F05811681169507955C
:100AF000169507952F5F231709F42F5F822F90E03B
:100B00006DE070E0DFD1FC01E257FF4F8385882361
:100B100021F4A0E020E030E020C0822F90E06DE0E2
:100B200070E0D0D1FC01E257FF4FA481822F90E00A
:100B30006DE070E0C7D1FC01E257FF4F258136819F
:100B400036952795369527950217130730F48B2F86
:100B5000BA2FA82FC80189019C01F701F695E795E6
:100B6000F695E795E01BF10B021B130B21153105E0
:100B700011F421E030E00115110511F401E010E05D
:100B8000309711F4E1E0F0E08FB580936F008A2F89
:100B90006B2F7F0124DB1F910F91FF90EF90DF906F
:100BA000CF900895B7D0BD9AC598C59A3DDB8DE426
:100BB00080BF1FBC8FEF8DBDF6D02091810030919A
:100BC0008200409183005091840080918100909137
:100BD0008200A0918300B0918400281739074A074A
:100BE0005B0759F780916E00882339F788B3887FB7
:100BF00088BBECDB85E890E068E444DA8834910552
:100C000030F049DC882319F085E890E00DDF209171
:100C10008100309182004091830050918400809146
:100C2000810090918200A0918300B09184002817E8
:100C300039074A075B0759F7209371003093720018
:100C40004093730050937400B8CFEF92FF920F93CC
:100C50001F93FC012223C1F0223059F424EFE22E2D
:100C600021E0F22E012D112D60ED77E080E090E083
:100C700011C098EEE92E93E0F92E012D112D68EEAA
:100C800073E080E090E006C07B0100E010E0BA0174
:100C900080E090E09F0140E050E026D12FEF3FEF51
:100CA00040E050E046D12E0D3F1D401F511F84E013
:100CB000220F331F441F551F8A95D1F7C9011F9179
:100CC0000F91FF90EF9008951F920F920FB60F9221
:100CD00011248F939F93AF93BF9380918100909144
:100CE0008200A0918300B091840080539F4FAF4F4A
:100CF000BF4F8093810090938200A0938300B093B4
:100D00008400BF91AF919F918F910F900FBE0F9074
:100D10001F90189580ED89BD8AB582608ABD83B722
:100D2000816083BF89B7806189BF12BE78940895BE
:100D3000EF92FF920F931F93CF93DF938330E8F4EA
:100D400090E067E070E0BED046E3E42E40E0F42E91
:100D5000E80EF91E8C010D5F1F4FC0E0D0E0F701D7
:100D60006491C80197D021960894E11CF11C0F5F93
:100D70001F4FC730D10599F70FC0C0E0D0E0FE018A
:100D8000ED5CFF4FE491CE01805090406E2F82D0F9
:100D90002196C831D10599F7DF91CF911F910F911D
:100DA000FF90EF900895CF92DF92EF92FF920F9312
:100DB0001F93CF93DF9380E090E082D0C3E3D0E035
:100DC000FE019491891789F481E090E079D0219611
:100DD000FE0194912197891741F482E090E070D050
:100DE0002296FE019491891711F08FEFA1DF5EE842
:100DF000C52E50E0D52E00E010E0C80167E070E09D
:100E000061D08D5F9F4F48D07C01C80167E070E0E2
:100E100059D08B5F9F4F40D0EC01C80167E070E074
:100E200051D0875F9F4F4CD0982FF6018083CE150D
:100E3000DF0530F0CE19DF0980E0B701AE0105C053
:100E4000EC1AFD0A80E0BE01A70120E0FEDEF601FB
:100E5000968385830F5F1F4F8DE090E0C80ED91EEB
:100E60000330110551F6DF91CF911F910F91FF9043
:100E7000EF90DF90CF900895FF920F931F93F72E7E
:100E80008C0181D0C80101966F2D7DD01F910F91EB
:100E9000FF90089578D00895FF920F931F938C01CF
:100EA000019669D0F82EC80166D05F2D40E0282F4A
:100EB00030E0242B352BC9011F910F91FF9008952D
:100EC0005AD008955527002480FF02C0060E571FF0
:100ED000660F771F6115710521F09695879500972C
:100EE00099F7952F802D0895FF27EE27BB27AA2776
:100EF00060FF04C0A20FB31FE41FF51F220F331FB2
:100F0000441F551F969587957795679589F70097A4
:100F1000760771F7CF01BD010895991B79E004C0F0
:100F2000991F961708F0961B881F7A95C9F7809528
:100F30000895A1E21A2EAA1BBB1BFD010DC0AA1F1A
:100F4000BB1FEE1FFF1FA217B307E407F50720F032
:100F5000A21BB30BE40BF50B661F771F881F991FAD
:100F60001A9469F760957095809590959B01AC01F6
:100F7000BD01CF010895E199FECF9FBB8EBBE09AE2
:100F800099278DB30895262FE199FECF1CBA9FBBF8
:100F90008EBB2DBB0FB6F894E29AE19A0FBE019674
:060FA0000895F894FFCF54
:0E0FA60096984B4C550100014001500155003A
:00000001FF
