:1000000025C034C033C032C031C030C02FC02EC074
:100010002DC02CC0A3C42AC029C028C027C0424F6D
:100020004F5400000000000000000000000000002D
:10003000000000545231E803D007000080E803D0EC
:1000400007000080E803D0070000800011241FBED5
:10005000CFE5D2E0DEBFCDBF10E0A0E6B0E001C04A
:100060001D92A73AB107E1F7EBD3D9C5C9CF0F92DB
:100070000FB60F921F935F933F93AF93BF93A82F39
:10008000B92F1127552737E088279927AA95BB9ABA
:10009000BC98F8945395B4995527523709F0FACF84
:1000A0005527B49923C0B49921C0B4991FC0B499FD
:1000B0001DC0B4991BC0B49919C0B49917C0B499A4
:1000C00015C0EFCFB49912C0B49910C0B4990EC046
:1000D000B4990CC0B4990AC0B49908C0B49906C0C8
:1000E000B49904C053955F3F69F757C0382309F4AA
:1000F000A395B49B15C0110F11601C93B49B13C042
:10010000B49B11C0B49B0FC0B49B0DC0B49B0BC07B
:10011000B49B09C0B49B07C053955F3F79F73DC0BE
:10012000110F1C93000037E08395861759F6B49998
:1001300012C0B49910C0B4990EC0B4990CC0B4994F
:100140000AC0B49908C0B49906C0B49904C05395C4
:100150005A3269F722C0C39A5527B49B15C001963D
:1001600000000000B49B16C0B49B14C0B49B12C026
:10017000B49B10C0B49B0EC0B49B0CC0B49B0AC00F
:1001800053955F3F79F709C0C39855270196000042
:100190000000CDCFC3985527CACFBF91AF913F91F3
:1001A0005F911F910F900FBE0F9008950F920FB6A1
:1001B0000F927F93AF93BF93F89478B3782B762BFD
:1001C000742B78BBD9011197F1F778B3782778BBF6
:1001D000D8011197F1F778B3762778BBD70111973B
:1001E000F1F778B3742778BBBF91AF917F910F90EF
:1001F0000FBE0F90089548E350E05093770040936E
:10020000760081E08093780020EC3DE530937A0021
:1002100020937900509384004093830082E0809380
:10022000850030938700209386005093910040937F
:10023000900084E080939200309394002093930088
:1002400087B3876087BB88B3887F88BB0895809118
:100250007F00882321F440E050E06FEF05C040911B
:10026000790050917A0060E080918C00882349F0F9
:1002700020918600309187002417350710F061E047
:1002800001C09A0180919900882341F080919300E8
:10029000909194008217930708F062E0862F0895EA
:1002A0002F923F924F925F926F927F928F929F9286
:1002B000AF92BF92CF92DF92EF92FF920F931F9374
:1002C000DF93CF93CDB7DEB72F970FB6F894DEBF8D
:1002D0000FBECDBF89877F876E872A012A87602E50
:1002E000EB86CA01059698878F8334D4782EAE8525
:1002F000BF8515960D90BC91A02DBA83A9834C861D
:100300005D86C20113D44C01F2013296FE83ED8367
:10031000CF010CD45C0124E0222E312C240C351C9E
:10032000C10118D4082F9A85892F90E09C838B8374
:100330006C01A7E0CA22DD24C114D10451F0B4E05D
:10034000CB16D10434F48FB581E0EE85FF85838729
:100350002AC0AE85BF851B961C921B9711968C9167
:10036000119790E0877090700097E9F00497DCF4A3
:100370001C9196E0E92EF12CE40CF51CC701EAD3A0
:10038000181729F0C701EE85FF856081CDD372FC77
:1003900006C0F4E07F2A8F819885672DC5D3AE858E
:1003A000BF851C961C92B3E0CB16D10411F1E4E09A
:1003B000CE16D10434F4F2E0CF16D10409F04DC0CA
:1003C0000AC084E0C816D10411F195E0C916D10421
:1003D00009F043C034C0AE85BF8511968C918770FB
:1003E000823029F0EE85FF8510861782118621E084
:1003F00035C0AE85BF8511968C918770833029F00A
:10040000EE85FF8510861782118622E027C0AE8513
:10041000BF8511968C9187708430F9F0BB81B3FF52
:100420000AC0872D80958170EEEF7E22782A8F8119
:100430009885672D02C0C101662D76D30EC0AE85AA
:10044000BF8511968C918770853039F0BB81B3FFE1
:1004500002C0EFEFE9878985B5D220E0172D70FC47
:1004600060940023D1F0AE85BF853C91462D50E0CD
:10047000832F90E0602F70E0631640F0481B590B0B
:100480006417750754F4602E630E07C0841B950B28
:100490006817790714F4632E601ABB85EB2EFF24CE
:1004A000A814B90470F0962D80E0A50148195909E7
:1004B0008E299F29B40113D2EE85FF85968385830B
:1004C0000FC0962D80E0A4014A195B098E299F294F
:1004D000B50105D2AE85BF8516969C938E93159770
:1004E000B1E0CB16D10459F0E1E0CE16D1040CF402
:1004F0009EC0F4E0CF16D1040CF099C046C0AE8582
:10050000BF851A968C911A97833008F090C012FF1D
:1005100021C082010A5F1F4FC8011CD3681611F465
:1005200083E01DC0C80116D3681648F4AE85BF85A8
:100530001A968C911A97823069F081E010C0C80138
:1005400009D3861578F4AE85BF851A968C911A97D3
:10055000813021F483E01A968C9304C082E0EE850A
:10056000FF858287AE85BF851A968C911A97833056
:1005700008F05DC0E981FA811696FC93EE93159719
:100580001B961C921B976C9052C0AE85BF8515962A
:100590000D911C91169784E0169507958A95E1F7C1
:1005A00019968C918823C9F4A814B90438F0081559
:1005B000190550F0A016B10638F00FC0801691064C
:1005C00018F00A151B0548F489819A81EE85FF858C
:1005D00096838583138660802AC081E0AE85BF85BF
:1005E00019968C93BB81B3FF22C0EE85FF85818174
:1005F00083FD1DC0678170856115710519F4108731
:10060000078315C08C859D8581D28D819E81B8011F
:100610007DD2AE85BF8518961C921E9217971996AB
:100620001C92B2E07B2A8F819885672D7DD2EE8562
:10063000FF858385882341F1F080F61409F58485D0
:10064000833310F48F5F8487AE85BF851C968C91B1
:100650008233D1F482010A5F1F4FC8017BD2681632
:1006600019F0C8016F2D60D272FC06C0B4E07B2A7D
:100670008F819885672D58D2EE85FF85148604C03A
:10068000AE85BF851C961C92EE85FF8560828A85AB
:1006900081832F960FB6F894DEBF0FBECDBFCF91EA
:1006A000DF911F910F91FF90EF90DF90CF90BF905F
:1006B000AF909F908F907F906F905F904F903F9002
:1006C0002F900895CF92DF92EF92FF920F931F9396
:1006D0006C0180E064E770E043E050E0F6012081C7
:1006E0000181E280DDDD81E061E870E04AE050E018
:1006F000F60123810481E580D3DD82E06EE870E0BD
:1007000041E150E0F60126810781E084C9DD9FDDEB
:10071000382F8F3F09F48DC090E06DE070E01CD25F
:10072000FC01EC58FF4F4481832F90E06DE070E0B6
:1007300013D2FC01EC58FF4FE580F68020E0332314
:1007400009F421E0822F90E06DE070E005D2FC0119
:10075000EC58FF4F8385882321F4B0E000E010E0DF
:1007600018C0822F90E06DE070E0F6D1FC01EC58EB
:10077000FF4FB481822F90E06DE070E0EDD1FC017D
:10078000EC58FF4F0581168116950795169507952C
:100790002F5F231709F42F5F822F90E06DE070E048
:1007A000DBD1FC01EC58FF4F8385882321F4A0E0C6
:1007B00020E030E020C0822F90E06DE070E0CCD1EE
:1007C000FC01EC58FF4FA481822F90E06DE070E0B7
:1007D000C3D1FC01EC58FF4F258136813695279512
:1007E000369527950217130730F48B2FBA2FA82FB1
:1007F000C80189019C01F701F695E795F695E79503
:10080000E01BF10B021B130B2115310511F421E044
:1008100030E00115110511F401E010E0309711F4FA
:10082000E1E0F0E08FB5809361008A2F6B2F7F01AC
:10083000BDDC1F910F91FF90EF90DF90CF90089556
:10084000B3D0D9DC8DE480BF1FBC8FEF8DBDF5D058
:1008500020916700309168004091690050916A00D2
:100860008091670090916800A0916900B0916A0042
:10087000281739074A075B0759F7809160008823DA
:1008800039F788B3887F88BB8FB5809362008BE689
:1008900090E068E4ECDB8834910518F08BE690E09A
:1008A00011DF2091670030916800409169005091FC
:1008B0006A008091670090916800A0916900B091F2
:1008C0006A00281739074A075B0759F72093630026
:1008D000309364004093650050936600B9CFEF9267
:1008E000FF920F931F93FC012223C1F0223059F491
:1008F00024EFE22E21E0F22E012D112D60ED77E0A4
:1009000080E090E011C098EEE92E93E0F92E012DE1
:10091000112D68EE73E080E090E006C07B0100E0FE
:1009200010E0BA0180E090E09F0140E050E026D165
:100930002FEF3FEF40E050E03AD12E0D3F1D401F1A
:10094000511F84E0220F331F441F551F8A95D1F792
:10095000C9011F910F91FF90EF9008951F920F9280
:100960000FB60F9211248F939F93AF93BF938091F3
:10097000670090916800A0916900B0916A0080536F
:100980009F4FAF4FBF4F8093670090936800A09335
:100990006900B0936A00BF91AF919F918F910F90C2
:1009A0000FBE0F901F90189580ED89BD8AB58260AB
:1009B0008ABD83B7816083BF89B7806189BF12BE5A
:1009C00078940895EF92FF920F931F93CF93DF9344
:1009D0008330E8F490E067E070E0BED046E3E42EB8
:1009E00040E0F42EE80EF91E8C010D5F1F4FC0E0B1
:1009F000D0E0F7016491C80197D021960894E11CDA
:100A0000F11C0F5F1F4FC730D10599F70FC0C0E031
:100A1000D0E0FE01ED5CFF4FE491CE0180509040AC
:100A20006E2F82D02196C831D10599F7DF91CF91F1
:100A30001F910F91FF90EF900895CF92DF92EF9268
:100A4000FF920F931F93CF93DF9380E090E082D0CB
:100A5000C3E3D0E0FE019491891789F481E090E02E
:100A600079D02196FE0194912197891741F482E073
:100A700090E070D02296FE019491891711F08FEFCB
:100A8000A1DF54E7C52E50E0D52E00E010E0C801EC
:100A900067E070E061D08D5F9F4F48D07C01C80156
:100AA00067E070E059D08B5F9F4F40D0EC01C801E8
:100AB00067E070E051D0875F9F4F4CD0982FF601D0
:100AC0008083CE15DF0530F0CE19DF0980E0B70155
:100AD000AE0105C0EC1AFD0A80E0BE01A70120E0CE
:100AE000FEDEF601968385830F5F1F4F8DE090E059
:100AF000C80ED91E0330110551F6DF91CF911F9119
:100B00000F91FF90EF90DF90CF900895FF920F9399
:100B10001F93F72E8C0175D0C80101966F2D71D0EF
:100B20001F910F91FF9008956CD00895FF920F933D
:100B30001F938C0101965DD0F82EC8015AD05F2D0D
:100B400040E0282F30E0242B352BC9011F910F9155
:100B5000FF9008954ED008955527002480FF02C0CD
:100B6000060E571F660F771F6115710521F09695C8
:100B70008795009799F7952F802D0895FF27EE27E9
:100B8000BB27AA2760FF04C0A20FB31FE41FF51FF5
:100B9000220F331F441F551F9695879577956795AC
:100BA00089F70097760771F7CF01BD010895A1E29B
:100BB0001A2EAA1BBB1BFD010DC0AA1FBB1FEE1FD7
:100BC000FF1FA217B307E407F50720F0A21BB30B22
:100BD000E40BF50B661F771F881F991F1A9469F79E
:100BE00060957095809590959B01AC01BD01CF01FA
:100BF0000895E199FECF9FBB8EBBE09A99278DB3F4
:100C00000895262FE199FECF1CBA9FBB8EBB2DBB4A
:100C10000FB6F894E29AE19A0FBE01960895F894FF
:020C2000FFCF04
:00000001FF
