:1000000025C03FC03EC0EAC03CC03BC03AC039C07A
:1000100038C037C0F5C635C034C033C032C0424FD7
:100020004F5400000000000000000000000000002D
:10003000000000545231E803D007000080E803D0EC
:1000400007000080E803D0070000800011241FBED5
:10005000CFE5D2E0DEBFCDBF10E0A0E6B0E0EEEE2F
:10006000F0E102C005900D92AE36B107D9F710E06D
:10007000AEE6B0E001C01D92AF3CB107E1F7F3D5A9
:1000800034C8BECF0F920FB60F921F935F933F936A
:10009000AF93BF93A82FB92F1127552737E0882793
:1000A0009927AA95BB9ABC985395B4995527B499AA
:1000B0005527B4995527B4995527B4995527B4991C
:1000C0005527B4995527B4995527573209F0ECCFE5
:1000D0005527B49923C0B49921C0B4991FC0B499CD
:1000E0001DC0B4991BC0B49919C0B49917C0B49974
:1000F00015C0EFCFB49912C0B49910C0B4990EC016
:10010000B4990CC0B4990AC0B49908C0B49906C097
:10011000B49904C053955F3F69F757C0382309F479
:10012000A395B49B15C0110F11601C93B49B13C011
:10013000B49B11C0B49B0FC0B49B0DC0B49B0BC04B
:10014000B49B09C0B49B07C053955F3F79F73DC08E
:10015000110F1C93000037E08395861759F6B49968
:1001600012C0B49910C0B4990EC0B4990CC0B4991F
:100170000AC0B49908C0B49906C0B49904C0539594
:100180005A3269F722C0C39A5527B49B15C001960D
:1001900000000000B49B16C0B49B14C0B49B12C0F6
:1001A000B49B10C0B49B0EC0B49B0CC0B49B0AC0DF
:1001B00053955F3F79F709C0C39855270196000012
:1001C0000000CDCFC3985527CACFBF91AF913F91C3
:1001D0005F911F910F900FBE0F9008950F920FB671
:1001E0000F92CF93DF93CDB7DEB76F927F926E8081
:1001F0007D800F931F9304E510E06016710650F0A8
:1002000005EE10E00615170528F0C39888279927F2
:100210001D830E831F910F917F906F90DF91CF917F
:100220000F900FBE0F9018950F920FB60F927F93FD
:10023000AF93BF93F89478B3782B762B742B78BB5D
:10024000D9011197F1F778B3782778BBD8011197C6
:10025000F1F778B3762778BBD7011197F1F778B328
:10026000742778BBBF91AF917F910F900FBE0F9015
:10027000089548E350E050939F0040939E0081E032
:100280008093A00020EC3DE53093A2002093A100D4
:100290005093AC004093AB0082E08093AD0030936C
:1002A000AF002093AE005093B9004093B80084E0B3
:1002B0008093BA003093BC002093BB0087B3876063
:1002C00087BB88B3887F88BB0895EF92FF921F9306
:1002D000CF93DF93C0917900D0917A00209709F4F1
:1002E00068C080917E0090917F00892B09F461C0E5
:1002F00020917C00822F869586958695FE01E80FD9
:10030000F11D277080E890E002C0959587952A95A9
:10031000E2F71081182360917D0070E080E090E0AA
:1003200020E83EE340E050E083D62CE096958795A8
:10033000779567952A95D1F7DB0150917B0020E0F6
:1003400030E080E8E82EF12C01C0182F2A0F3B1F67
:1003500080917C008F5F652F84D6492F90937C001D
:10036000892F869586958695FE01E80FF11DE0811F
:1003700080917E0090917F00019790937F00809301
:100380007E00892B81F04770C70102C09595879543
:100390004A95E2F78E23112319F08823B1F60BC09A
:1003A000882399F202C0112331F4309521953F4FF3
:1003B00002C020E030E0C901DF91CF911F91FF9092
:1003C000EF9008958091A700882321F440E050E049
:1003D0006FEF05C04091A1005091A20060E08091B4
:1003E000B400882349F02091AE003091AF0024176B
:1003F000350710F061E001C09A018091C1008823A7
:1004000041F08091BB009091BC008217930708F0E7
:1004100062E0862F08950F931F930FB580917000AF
:10042000801718F4102F181B03C0182F1095100FE9
:100430002091620030916300121613067CF5812F23
:1004400090E0821793073CF4281B390B309363002C
:10045000209362004DC0C59838DF9093630080936D
:100460006200892B09F044C0809171009091720064
:10047000009719F42DE033E002C022E43FE030930E
:10048000630020936200892B21F08091800080FD21
:100490002FC088279927821B930B26C02115310571
:1004A00039F1412F50E088279927841B950B281795
:1004B00039073CF4420F531F50936300409362008E
:1004C00017C0C59A02DF9093630080936200892B66
:1004D00079F48091710090917200892B19F48DE06C
:1004E00093E002C082E49FE09093630080936200F7
:1004F0008091600090916100212F30E0281739072A
:1005000038F4821B930B909361008093600004C0C9
:100510001092610010926000009370001F910F9183
:100520000895AC018091810090918200481759078D
:1005300071F4809185008F3F61F08F5F809385001B
:100540008A3038F0509384004093830002C01092A8
:10055000850020918300309184004217530711F4E5
:1005600081E0089580E0232B09F481E00895DF9273
:10057000EF92FF920F931F93CF93DF937B018A013A
:10058000D22E882379F0EB012696CE013DD5D816E0
:1005900019F0CE016D2D22D5F801608162FD0BC0EE
:1005A000646005C0FA01608162FF05C06B7F6083F3
:1005B000C701059613D5DF91CF911F910F91FF9041
:1005C000EF90DF9008952F923F924F925F926F923B
:1005D0007F928F929F92AF92BF92CF92DF92EF92D3
:1005E000FF920F931F93DF93CF93CDB7DEB72C9776
:1005F0000FB6F894DEBF0FBECDBF89876B012A010D
:100600002A87B02EAE2CCA01059698878F83FCD41A
:100610008983F6010580F681E02DFC83EB834B8610
:100620005C86C201DDD43C01C20102969E838D83AB
:10063000D7D44C0164E0262E312C240C351CC1018A
:10064000E3D48A839A85E92EFF248701077010700E
:100650000115110519F10430110504F59FB58091BC
:100660006F00891718F4981B892F02C08095890F95
:1006700090E0A0E0B0E05CE0880F991FAA1FBB1FCC
:100680005A95D1F78059994AA340B04020F081E0B3
:10069000F601838716C0F601138613C0F601138690
:1006A000818190E087709070009759F004974CF426
:1006B00081E0B201AE014F5F5F4F2B2D58DFF60195
:1006C000148603301105D9F0043011052CF40230E2
:1006D000110509F093C008C004301105D9F00530A8
:1006E000110509F08BC057C0F601818187708230F7
:1006F00021F0F60110861782118621E080C0F601F4
:1007000081818770833021F0F6011086178211866F
:1007100022E075C0E3FE72C0F6018181282F30E02F
:10072000C90187709070049709F068C023FD66C006
:10073000F7E8AF1689F02AE9A21629F085E1A81694
:1007400009F05CC003C0C1016B2D0FC08981682F07
:10075000609561708E7F05C08981682F6095687093
:10076000877F682B69838F81988538D488E180934F
:100770007B0010927C0084E180937D0086E990E00C
:1007800090937F0080937E008BE690E090937A00B8
:10079000809379008AC1E3FE31C0F6018181282F60
:1007A00030E0C90187709070059741F523FD26C0A0
:1007B0002A2D30E09B2D80E0282B392BFAE52E39AD
:1007C0003F0791F089EE2A38380721F02557364146
:1007D000A9F405C0898550D325E630E054C18FEFD8
:1007E0004BD327E630E04FC180E0B201AE014F5F4E
:1007F0005F4F2B2DBCDE29E630E045C120E089812A
:1008000080FDB094EA81EE23D9F0F60130814B2DC2
:1008100050E0832F90E0FA816F2F70E0B31640F024
:10082000481B590B641775075CF4BF2EB30E08C044
:10083000841B950B681779071CF4B32E8A81B81AAC
:100840006A2D70E08614970448F09B2D80E0A40187
:1008500046195709862B972BB30108C09B2D80E0C2
:10086000A30148195909862B972BB4018AD2F601A6
:10087000968385830130110549F0013011050CF490
:10088000D6C0043011050CF0D2C03BC0F601828501
:10089000833008F0CCC0898182FF1BC082010A5FCF
:1008A0001F4FC801B1D3B81611F483E015C0C801B9
:1008B000ABD3B81630F4F6018285823051F081E076
:1008C0000BC0C801A1D38B1548F4F6018285813095
:1008D00011F483E002C082E0F6018287809160001B
:1008E00090916100892B09F4A2C0F60182858330C2
:1008F00008F09DC08B819C81968385831386B08090
:1009000096C0F6010581168144E0169507954A9533
:10091000E1F78185882349F58614970438F0061598
:10092000170550F08016910638F01FC0601671064A
:1009300018F008151905C8F48B819C81F60196837F
:1009400085831386B08080917E0090917F00892BF3
:1009500009F06DC088E080937B0010927C008AE0F3
:1009600080937D0084E690E052C081E0F6018187AB
:10097000E3FE3DC0818190E0E826F926F7E0EF2212
:10098000FF24EF28A1F583FD32C0F6016781708551
:100990006115710519F41087078349C08B859C8503
:1009A0000FD38D819E81B8010BD3F601108617827B
:1009B00011866981626069838F8198850FD380E099
:1009C000B201AE014F5F5F4F2B2DD1DD88E18093E7
:1009D0007B0010927C0084E180937D0086E990E0AA
:1009E00090937F0080937E008BE690E016C080910C
:1009F0007E0090917F00892BD1F488E080937B006A
:100A000010927C0082E380937D0084E190E09093DB
:100A10007F0080937E0084E690E090937A0080933C
:100A2000790081E090E09093630080936200F6018A
:100A300083858823A9F080818B1581F48485833395
:100A400010F48F5F8487F6018485823349F481E056
:100A5000B201AE014F5F5F4F2B2D89DDF601148689
:100A6000F601B0822A8521838985882329F5898129
:100A700090E08870907033E0959587953A95E1F70E
:100A80008093800019C080E180937B0010927C00ED
:100A900082E380937D0084E690E090937F008093D2
:100AA0007E0030937A002093790081E090E090936B
:100AB000630080936200A2CE2C960FB6F894DEBF3E
:100AC0000FBECDBFCF91DF911F910F91FF90EF909F
:100AD000DF90CF90BF90AF909F908F907F906F905E
:100AE0005F904F903F902F900895CF92DF92EF92BA
:100AF000FF920F931F936C0180E06CE970E043E07C
:100B000050E0F60120810181E2805DDD81E069EA4B
:100B100070E04AE050E0F60123810481E58053DD76
:100B200082E066EB70E041E150E0F601268107814A
:100B3000E08449DD47DC382F8F3F09F48DC090E019
:100B40006DE070E063D2FC01E456FF4F4481832FD7
:100B500090E06DE070E05AD2FC01E456FF4FE58072
:100B6000F68020E0332309F421E0822F90E06DE04D
:100B700070E04CD2FC01E456FF4F8385882321F4BA
:100B8000B0E000E010E018C0822F90E06DE070E06F
:100B90003DD2FC01E456FF4FB481822F90E06DE01E
:100BA00070E034D2FC01E456FF4F058116811695A2
:100BB0000795169507952F5F231709F42F5F822F4E
:100BC00090E06DE070E022D2FC01E456FF4F838597
:100BD000882321F4A0E020E030E020C0822F90E0C4
:100BE0006DE070E013D2FC01E456FF4FA481822F28
:100BF00090E06DE070E00AD2FC01E456FF4F2581E1
:100C0000368136952795369527950217130730F4C8
:100C10008B2FBA2FA82FC80189019C01F701F695E7
:100C2000E795F695E795E01BF10B021B130B2115D9
:100C3000310511F421E030E00115110511F401E056
:100C400010E0309711F4E1E0F0E08FB580936F0091
:100C50008A2F6B2F7F01E8DA1F910F91FF90EF90A1
:100C6000DF90CF9008950F931F93CF93DF93EED033
:100C7000BD9AC598C59AFDDA8DE480BF1FBC8FEF81
:100C80008DBD35D12091860030918700409188003C
:100C9000509189008091860090918700A0918800F2
:100CA000B0918900281739074A075B0759F78091E7
:100CB0006E00882339F78091730090E069E070E05E
:100CC000A5D18C0106571F4F88B3887F88BBA3DB53
:100CD000CBD08FB58D538EBD88B7806488BF89B760
:100CE000806489BFC80168E4CDD9EC0189B78F7BE6
:100CF00089BFBED0C834D10598F0CE0112DC88235C
:100D000079F010937200009371008091730090E06D
:100D100001968170907080937300109274000CC0E3
:100D200080917400843120F48F5F8093740004C03C
:100D30001092720010927100809171009091720077
:100D4000009709F0D2DE2091860030918700409113
:100D50008800509189008091860090918700A09131
:100D60008800B0918900281739074A075B0759F7AF
:100D7000209375003093760040937700509378006D
:100D800081CFEF92FF920F931F93FC012223C1F0BA
:100D9000223059F424EFE22E21E0F22E012D112D04
:100DA00060ED77E080E090E011C098EEE92E93E0EE
:100DB000F92E012D112D68EE73E080E090E006C061
:100DC0007B0100E010E0BA0180E090E09F0140E08C
:100DD00050E02ED12FEF3FEF40E050E04ED12E0DEE
:100DE0003F1D401F511F84E0220F331F441F551F1A
:100DF0008A95D1F7C9011F910F91FF90EF90089547
:100E00001F920F920FB60F9211248F939F93AF935F
:100E1000BF938091860090918700A0918800B09147
:100E2000890080539F4FAF4FBF4F809386009093B0
:100E30008700A0938800B0938900BF91AF919F91E4
:100E40008F910F900FBE0F901F90189580ED89BD68
:100E50008AB582608ABD83B7816083BF89B78061AC
:100E600089BF12BE7894089589B78F7E89BF08958F
:100E700089B7806189BF0895EF92FF920F931F9306
:100E8000CF93DF938330E8F490E067E070E0BED06A
:100E900046E3E42E40E0F42EE80EF91E8C010D5FCF
:100EA0001F4FC0E0D0E0F7016491C80197D02196B0
:100EB0000894E11CF11C0F5F1F4FC730D10599F753
:100EC0000FC0C0E0D0E0FE01ED5CFF4FE491CE0129
:100ED000805090406E2F82D02196C831D10599F76D
:100EE000DF91CF911F910F91FF90EF900895CF92D6
:100EF000DF92EF92FF920F931F93CF93DF9380E0E7
:100F000090E082D0C3E3D0E0FE019491891789F488
:100F100081E090E079D02196FE0194912197891784
:100F200041F482E090E070D02296FE0194918917FE
:100F300011F08FEFA1DF5CE9C52E50E0D52E00E067
:100F400010E0C80167E070E061D08D5F9F4F48D02E
:100F50007C01C80167E070E059D08B5F9F4F40D0A3
:100F6000EC01C80167E070E051D0875F9F4F4CD023
:100F7000982FF6018083CE15DF0530F0CE19DF09FA
:100F800080E0B701AE0105C0EC1AFD0A80E0BE01A9
:100F9000A70120E0F6DEF601968385830F5F1F4FE1
:100FA0008DE090E0C80ED91E0330110551F6DF9197
:100FB000CF911F910F91FF90EF90DF90CF90089508
:100FC000FF920F931F93F72E8C0181D0C8010196D9
:100FD0006F2D7DD01F910F91FF90089578D00895C7
:100FE000FF920F931F938C01019669D0F82EC801D0
:100FF00066D05F2D40E0282F30E0242B352BC9012F
:101000001F910F91FF9008955AD0089555270024FD
:1010100080FF02C0060E571F660F771F611571050E
:1010200021F096958795009799F7952F802D089533
:10103000FF27EE27BB27AA2760FF04C0A20FB31F1C
:10104000E41FF51F220F331F441F551F96958795E8
:101050007795679589F70097760771F7CF01BD01FE
:101060000895991B79E004C0991F961708F0961B04
:10107000881F7A95C9F780950895A1E21A2EAA1BB8
:10108000BB1BFD010DC0AA1FBB1FEE1FFF1FA21738
:10109000B307E407F50720F0A21BB30BE40BF50B35
:1010A000661F771F881F991F1A9469F760957095BE
:1010B000809590959B01AC01BD01CF010895E19908
:1010C000FECF9FBB8EBBE09A99278DB30895262F44
:1010D000E199FECF1CBA9FBB8EBB2DBB0FB6F89417
:0E10E000E29AE19A0FBE01960895F894FFCFB0
:0E10EE0096984B4C55010001400150015500F1
:00000001FF
