:1000000026C040C03FC0EBC03DC03CC03BC03AC072
:1000100039C038C03BC736C035C034C033C0424F8A
:100020004F5400000000000000000000000000002D
:10003000000000545231E803D00700008000E803BC
:10004000D00700008000E803D007000080001124E2
:100050001FBECFE5D2E0DEBFCDBF10E0A0E6B0E02E
:10006000E0E9F1E102C005900D92AE36B107D9F793
:1000700010E0AEE6B0E001C01D92A23DB107E1F78D
:1000800038D684C8BDCF0F920FB60F921F935F93DF
:100090003F93AF93BF93A82FB92F1127552737E070
:1000A00088279927AA95BB9ABC985395B499552748
:1000B000B4995527B4995527B4995527B49955271C
:1000C000B4995527B4995527B4995527573209F053
:1000D000ECCF5527B49923C0B49921C0B4991FC05F
:1000E000B4991DC0B4991BC0B49919C0B49917C074
:1000F000B49915C0EFCFB49912C0B49910C0B49997
:100100000EC0B4990CC0B4990AC0B49908C0B4998F
:1001100006C0B49904C053955F3F69F757C03823B0
:1001200009F4A395B49B15C0110F11601C93B49BE7
:1001300013C0B49B11C0B49B0FC0B49B0DC0B49B43
:100140000BC0B49B09C0B49B07C053955F3F79F7C0
:100150003DC0110F1C93000037E08395861759F6B8
:10016000B49912C0B49910C0B4990EC0B4990CC01F
:10017000B4990AC0B49908C0B49906C0B49904C02F
:1001800053955A3269F722C0C39A5527B49B15C0BC
:10019000019600000000B49B16C0B49B14C0B49B31
:1001A00012C0B49B10C0B49B0EC0B49B0CC0B49BD7
:1001B0000AC053955F3F79F709C0C3985527019648
:1001C00000000000CDCFC3985527CACFBF91AF9193
:1001D0003F915F911F910F900FBE0F9008950F9266
:1001E0000FB60F92CF93DF93CDB7DEB76F927F92AA
:1001F0006E807D800F931F9305E510E060167106F9
:1002000050F006EE10E00615170528F0C398882771
:1002100099271D830E831F910F917F906F90DF911F
:10022000CF910F900FBE0F9018950F920FB60F92AF
:100230007F93AF93BF93F89478B3782B762B742B7E
:1002400078BBD9011197F1F778B3782778BBD8013B
:100250001197F1F778B3762778BBD7011197F1F7AB
:1002600078B3742778BBBF91AF917F910F900FBE89
:100270000F90089548E350E05093A00040939F00F2
:1002800081E08093A10020EC3DE53093A300209312
:10029000A2005093AE004093AD0082E08093AF0087
:1002A0003093B1002093B0005093BC004093BB004A
:1002B00084E08093BD003093BF002093BE0087B3DD
:1002C000876087BB88B3887F88BB0895EF92FF92D1
:1002D0001F93CF93DF93C0917900D0917A0020973C
:1002E00009F468C080917E0090917F00892B09F409
:1002F00061C020917C00822F869586958695FE01AF
:10030000E80FF11D277080E890E002C09595879571
:100310002A95E2F71081182360917D0070E080E05B
:1003200090E020E83EE340E050E0D3D62CE0969504
:100330008795779567952A95D1F7DB0150917B00DA
:1003400020E030E080E8E82EF12C01C0182F2A0FC1
:100350003B1F80917C008F5F652FD4D6492F9093EF
:100360007C00892F869586958695FE01E80FF11D04
:10037000E08180917E0090917F00019790937F00B3
:1003800080937E00892B81F04770C70102C095954C
:1003900087954A95E2F78E23112319F08823B1F649
:1003A0000BC0882399F202C0112331F430952195B6
:1003B0003F4F02C020E030E0C901DF91CF911F9193
:1003C000FF90EF9008958091A800882321F440E0E9
:1003D00050E06FEF05C04091A2005091A30060E093
:1003E0008091B600882349F02091B0003091B1008F
:1003F0002417350710F061E001C09A018091C40014
:10040000882341F08091BE009091BF00821793072E
:1004100008F062E0862F08950F931F930FB5809127
:100420007000801718F4102F181B03C0182F109598
:10043000100F2091620030916300121613067CF5B4
:10044000812F90E0821793073CF4281B390B3093DF
:100450006300209362004DC0C59838DF909363001D
:1004600080936200892B09F044C0809171009091C3
:100470007200009719F42DE033E002C022E43FE05F
:100480003093630020936200892B21F080918000DB
:1004900080FD2FC088279927821B930B26C021152A
:1004A000310539F1412F50E088279927841B950B9E
:1004B000281739073CF4420F531F509363004093B1
:1004C000620017C0C59A02DF9093630080936200B8
:1004D000892B79F48091710090917200892B19F425
:1004E0008DE093E002C082E49FE0909363008093EC
:1004F00062008091600090916100212F30E0281708
:10050000390738F4821B930B90936100809360004D
:1005100004C01092610010926000009370001F915F
:100520000F910895AC01809181009091820048174D
:10053000590771F4809185008F3F61F08F5F809340
:1005400085008A3038F0509384004093830002C0C5
:100550001092850020918300309184004217530748
:1005600011F481E0089580E0232B09F481E00895DF
:10057000CF92DF92EF92FF920F931F93CF93DF936F
:100580006B017A01122F8823C1F0EB012696CE0170
:100590008CD5181719F0CE01612F71D5E601279679
:1005A000CE0183D5081719F0CE01602F68D5F70169
:1005B000608162FD0BC0646005C0FA01608162FF6A
:1005C00005C06B7F6083C601059659D5DF91CF9139
:1005D0001F910F91FF90EF90DF90CF9008952F9291
:1005E0003F924F925F926F927F928F929F92AF92C3
:1005F000BF92CF92DF92EF92FF920F931F93DF9300
:10060000CF93CDB7DEB72E970FB6F894DEBF0FBEEF
:10061000CDBF8B876B011A012C87502E1E2DCA016E
:1006200005969A87898741D58983F6010680F781E7
:10063000E02DFC83EB837FE3472E4E202D863E8604
:10064000C1011FD53C01C101029698878F8319D53E
:100650004C01F1013496FE83ED83CF0126D58A83C8
:10066000FC85AF2EBB2467E0E62EF12CEA20FB20B0
:10067000E114F10421F124E0E216F10404F59FB540
:1006800080916F00891718F4981B892F02C08095FC
:10069000890F90E0A0E0B0E05CE0880F991FAA1FEE
:1006A000BB1F5A95D1F78059994AA340B04020F01A
:1006B00081E0F601848717C0F601148614C0F601A4
:1006C0001486808190E087709070009761F00497A5
:1006D00054F481E0B101AE014F5F5F4F252D042D31
:1006E00047DFF6011586F3E0EF16F104F9F024E098
:1006F000E216F10434F482E0E816F10409F094C043
:100700000AC094E0E916F104E1F0E5E0EE16F10428
:1007100009F08AC055C0F60180818770823021F0CF
:10072000F60111861086128621E07FC0F6018081D5
:100730008770833021F0F60111861086128622E040
:1007400074C0A3FE71C0F6018081282F30E0C9017A
:1007500087709070049709F067C023FD65C0173853
:1007600081F01A3921F0153109F05EC004C08D8185
:100770009E81652D0FC08981682F609561708E7F85
:1007800005C08981682F60956870877F682B6983B1
:1007900089859A8574D488E180937B0010927C00CF
:1007A00084E180937D0086E990E090937F008093C0
:1007B0007E008BE690E090937A0080937900BBC135
:1007C000A3FE32C0F6018081282F30E0C901877076
:1007D0009070059749F523FD27C0212F30E0952D16
:1007E00080E0282B392BFAE52E393F0791F089EE6E
:1007F0002A38380721F025573641B1F405C08B85DA
:1008000081D325E630E085C18FEF7CD327E630E049
:1008100080C180E0B101AE014F5F5F4F252D042DF7
:10082000A7DE29E630E075C120E0898180FD509483
:10083000EA81EE23D9F0F6013181452D50E0832F76
:1008400090E0FA816F2F70E0531640F0481B590B6F
:10085000641775075CF45F2E530E08C0841B950B5C
:10086000681779071CF4532E8A81581A612F70E09B
:100870008614970450F0952D80E0607CA401461901
:100880005709862B972BB30109C0952D80E0607C1A
:10089000A30148195909862B972BB401B8D2F60148
:1008A00097838683F1E0EF16F10459F021E0E21618
:1008B000F1040CF400C184E0E816F1040CF0FBC074
:1008C00062C0442021F1F6018281882301F1442D88
:1008D00050E0282F30E0CA01822793278E71907054
:1008E000892B49F440FC02C020FD07C0F601838536
:1008F000833018F00CC020FD0AC020FD04C0F601B2
:100900008385833010F0F601138621E00AC08091C0
:10091000600090916100892B19F483E0F6018387D0
:1009200020E0F60193859330C0F4898182FF04C0F2
:10093000F6018181581611F483E00EC0581620F498
:10094000913031F082E007C0851538F4923011F40F
:1009500083E001C081E0F60183878091600090917F
:100960006100892B19F4222309F4A5C0F6018385BF
:10097000833008F0A0C08B819C8197838683148686
:100980005180428098C0F6010681178144E0169597
:1009900007954A95E1F78285882351F586149704D7
:1009A00038F00615170550F08016910638F020C073
:1009B0006016710618F008151905D0F48B819C811A
:1009C000F6019783868314865180428080917E0051
:1009D00090917F00892B09F06EC088E080937B00A6
:1009E00010927C008AE080937D0084E690E053C002
:1009F00081E0F6018287A3FE3EC0808190E0A826B8
:100A0000B926F7E0AF22BB24AB28A9F583FD33C09C
:100A1000F601608571856115710519F411870087EC
:100A20004AC08D859E851DD38F819885B80119D3C5
:100A3000F601118610861286698162606983898554
:100A40009A851DD380E0B101AE014F5F5F4F252D28
:100A5000042D8EDD88E180937B0010927C0084E180
:100A600080937D0086E990E090937F0080937E00E4
:100A70008BE690E016C080917E0090917F00892BDC
:100A8000D1F488E080937B0010927C0082E3809315
:100A90007D0084E190E090937F0080937E0084E667
:100AA00090E090937A008093790081E090E09093B9
:100AB000630080936200F60184858823B1F0818110
:100AC000851589F48585833310F48F5F8587F6015A
:100AD0008585823351F481E0B101AE014F5F5F4FF4
:100AE000252D042D45DDF60115862C85F601208384
:100AF000518242828B85882329F5898190E0887014
:100B0000907033E0959587953A95E1F78093800052
:100B100019C080E180937B0010927C0082E3809377
:100B20007D0084E690E090937F0080937E00309378
:100B30007A002093790081E090E0909363008093A5
:100B4000620072CE2E960FB6F894DEBF0FBECDBFF8
:100B5000CF91DF911F910F91FF90EF90DF90CF9099
:100B6000BF90AF909F908F907F906F905F904F90CD
:100B70003F902F900895CF92DF92EF92FF920F93C4
:100B80001F936C0180E06CE970E043E050E0F601F7
:100B900020810181E28023DD81E06AEA70E04BE0A0
:100BA00050E0F60123810481E58019DD82E068EBE5
:100BB00070E043E150E0F60126810781E0840FDD1B
:100BC00002DC382F8F3F09F48DC090E06EE070E0BA
:100BD0006ED2FC01E456FF4F4581832F90E06EE01A
:100BE00070E065D2FC01E456FF4FE680F78020E01C
:100BF000332309F421E0822F90E06EE070E057D2B9
:100C0000FC01E456FF4F8485882321F4B0E000E026
:100C100010E018C0822F90E06EE070E048D2FC0136
:100C2000E456FF4FB581822F90E06EE070E03FD236
:100C3000FC01E456FF4F068117811695079516951E
:100C400007952F5F231709F42F5F822F90E06EE046
:100C500070E02DD2FC01E456FF4F8485882321F4F7
:100C6000A0E020E030E020C0822F90E06EE070E055
:100C70001ED2FC01E456FF4FA581822F90E06EE06A
:100C800070E015D2FC01E456FF4F2681378136957E
:100C90002795369527950217130730F48B2FBA2F17
:100CA000A82FC80189019C01F701F695E795F695F3
:100CB000E795E01BF10B021B130B2115310511F415
:100CC00021E030E00115110511F401E010E030974A
:100CD00011F4E1E0F0E08FB580936F008A2F6B2F65
:100CE0007F01A3DA1F910F91FF90EF90DF90CF90DB
:100CF00008950F931F93CF93DF93EED0BD9AC598BD
:100D0000C59AB8DA8DE080BF1FBC8FEF8DBD37D19B
:100D10002091860030918700409188005091890091
:100D20008091860090918700A0918800B091890001
:100D3000281739074A075B0759F780916E00882307
:100D400039F78091730090E069E070E0B0D18C01D8
:100D500006571F4F88B3887F88BB5EDBCBD08FB52B
:100D60008D538EBD88B7806488BF89B7806489BF82
:100D7000C80168E488D9EC0189B78F7B89BFBED0F0
:100D8000C834D10598F0CE01CDDB882379F01093DB
:100D90007200009371008091730090E00196817061
:100DA000907080937300109274000CC08091740056
:100DB000843120F48F5F8093740004C0109272001D
:100DC000109271008091710090917200009709F06B
:100DD000D2DE2091860030918700409188005091AA
:100DE00089008091860090918700A0918800B09141
:100DF0008900281739074A075B0759F720937500C0
:100E000030937600409377005093780081CFEF9233
:100E1000FF920F931F93FC012223C1F0223059F45B
:100E200024EFE22E21E0F22E012D112D60ED77E06E
:100E300080E090E011C098EEE92E93E0F92E012DAC
:100E4000112D68EE73E080E090E006C07B0100E0C9
:100E500010E0BA0180E090E09F0140E050E039D11D
:100E60002FEF3FEF40E050E059D12E0D3F1D401FC6
:100E7000511F84E0220F331F441F551F8A95D1F75D
:100E8000C9011F910F91FF90EF9008951F920F924B
:100E90000FB60F9211248F939F93AF93BF938091BE
:100EA000860090918700A0918800B09189008053BE
:100EB0009F4FAF4FBF4F8093860090938700A093C2
:100EC0008800B0938900BF91AF919F918F910F904F
:100ED0000FBE0F901F90189580ED89BD8AB5826076
:100EE0008ABD83B7816083BF89B7806189BF12BE25
:100EF0007894089589B78F7E89BF089589B78061F6
:100F000089BF0895EF92FF920F931F93CF93DF93C2
:100F10008330F8F490E053E0880F991F5A95E1F779
:100F200046E3E42E40E0F42EE80EF91E8C010D5F3E
:100F30001F4FC0E0D0E0F7016491C801A0D0219616
:100F40000894E11CF11C0F5F1F4FC830D10599F7C1
:100F50000FC0C0E0D0E0FE01ED5CFF4FE491CE0198
:100F6000805090406E2F8BD02196CB31D10599F7D0
:100F7000DF91CF911F910F91FF90EF900895AF9265
:100F8000BF92CF92DF92EF92FF920F931F93CF9376
:100F9000DF9380E090E089D0C3E3D0E0FE0194913C
:100FA000891789F481E090E080D02196FE01949128
:100FB0002197891741F482E090E077D02296FE01D4
:100FC0009491891711F08FEF9DDF7DE9E72E70E096
:100FD000F72EAA24BB24850163E0000F111F6A9538
:100FE000E1F7C8018D5F9F4F4CD06C01C8018B5F4A
:100FF0009F4F47D0EC01C801875F9F4F56D0F70144
:101000008083C801865F9F4F50D0F7018183908114
:10101000CC15DD0530F0CC19DD0980E0B601AE015C
:1010200005C0CC1ADD0A80E0BE01A60120E0EFDE9B
:10103000F701968385830894A11CB11C8EE090E093
:10104000E80EF91E93E0A916B10429F6DF91CF91BD
:101050001F910F91FF90EF90DF90CF90BF90AF90D6
:101060000895FF920F931F93F72E8C0181D0C80132
:1010700001966F2D7DD01F910F91FF90089578D02C
:101080000895FF920F931F938C01019669D0F82E5B
:10109000C80166D05F2D40E0282F30E0242B352B8F
:1010A000C9011F910F91FF9008955AD008955527B7
:1010B000002480FF02C0060E571F660F771F6115C0
:1010C000710521F096958795009799F7952F802DBA
:1010D0000895FF27EE27BB27AA2760FF04C0A20FB1
:1010E000B31FE41FF51F220F331F441F551F969592
:1010F00087957795679589F70097760771F7CF0100
:10110000BD010895991B79E004C0991F961708F056
:10111000961B881F7A95C9F780950895A1E21A2E2B
:10112000AA1BBB1BFD010DC0AA1FBB1FEE1FFF1F8B
:10113000A217B307E407F50720F0A21BB30BE40BDB
:10114000F50B661F771F881F991F1A9469F7609522
:101150007095809590959B01AC01BD01CF010895DC
:10116000E199FECF9FBB8EBBE09A99278DB308957E
:10117000262FE199FECF1CBA9FBB8EBB2DBB0FB6AD
:10118000F894E29AE19A0FBE01960895F894FFCF81
:0E11900096984B4C550100014001500155004E
:00000001FF
