:100000000EC028C027C0CCC025C024C023C022C039
:1000100021C020C001C41EC01DC01CC01BC01124B3
:100020001FBECFE5D2E0DEBFCDBF10E0A0E7B0E05D
:10003000EEE1F9E002C005900D92A437B107D9F7BF
:1000400010E0A4E7B0E001C01D92AD39B107E1F7BF
:1000500025D263C4D5CF0F920FB60F921F935F9333
:100060003F93AF93BF93A82FB92F1127552737E0A0
:1000700088279927AA95BB9ABC98F8945395B49968
:100080005527B4995527B4995527B4995527B4994C
:100090005527B4995527B4995527B4995527573200
:1000A00009F0ECCF5527B49923C0B49921C0B49975
:1000B0001FC0B4991DC0B4991BC0B49919C0B4999C
:1000C00017C0B49915C0EFCFB49912C0B49910C03D
:1000D000B4990EC0B4990CC0B4990AC0B49908C0C0
:1000E000B49906C0B49904C053955F3F69F74FC0F7
:1000F000382309F4A3950000B49B15C0110F1160BB
:100100001C93B49B13C0B49B11C0B49B0FC0B49B91
:100110000DC0B49B0BC0B49B09C0B49B07C05395E2
:100120005F3F79F734C0110F1C93000037E08395CF
:10013000861751F6EF93FF93AE2DBF2D1C91EE273E
:10014000FF27E217F40769F00000C39A00000000DF
:1001500000000000C398000000000000000031967D
:10016000F0CFC39A0A950000110F08F0C398000061
:1001700037E0302329F4A395C3981C91003089F708
:10018000C39800000000003061F7FF91EF91BF912C
:10019000AF913F915F911F910F900FBE0F90089507
:1001A0000F920FB60F92EF93FF93E3E0F5EC0995F2
:1001B000FF91EF910F900FBE0F9018950F931F9323
:1001C000CF93DF93B82FFB01EA0140E050E009E84C
:1001D00015E01AC0BB2329F08491782F60E0A0E0DD
:1001E00004C07081FBCF660F771FCB018227932756
:1001F000220F331F97FF02C020273127AF5FA8309F
:1002000091F74F5F5F4F31964C175D0718F3C901A7
:10021000DF91CF911F910F9108953F924F925F927E
:100220006F927F928F929F92AF92BF92CF92DF9206
:10023000EF92FF920F931F93CF93DF936C01BB2438
:100240005524539423E0322E95E0492E66246A9477
:10025000762C90C08B2C9924F601118100E08281CC
:10026000E801C80FD11DC80DD91DFAE0C030DF0765
:1002700050F48091790090917A00806290937A0096
:100280008093790075C0AFB6F89480917200909118
:100290007300C817D90720F4D0937300C09372007D
:1002A00060917D0070917E006115710509F447C071
:1002B000CE0186279727807C892B09F440C0809146
:1002C000790090917A008E7F90937A0080937900E4
:1002D00007B600FCFDCFE199FECFFB01309257003D
:1002E000E89507B600FCFDCFE199FECFFB014092F7
:1002F0005700E89580E090E09E01207C07B600FC66
:10030000FDCFE199FECFFC01E20FF31F03015092F4
:100310005700E895112402968034910579F7AB01D6
:100320004F7350704E5F5F4F20917000309171009D
:1003300081E0607C43DF909371008093700007B68A
:1003400000FCFDCFE199FECFF601E80DF91DF58027
:10035000EE2484819701280F311DFE01090150927E
:100360005700E8951124AFBED0937E00C0937D0066
:10037000F2E0BF0EF6018081B81608F46BCFDF9172
:10038000CF911F910F91FF90EF90DF90CF90BF9092
:10039000AF909F908F907F906F905F904F903F9025
:1003A0000895409182004F5F4093820020E830E042
:1003B00002C0359527958A95E2F750E0242335232E
:1003C000232B29F080E480937400C59A089510923D
:1003D0007400C5980895E0917D00F0917E003097FB
:1003E00009F45BC02FB78091790090917A008E7FDD
:1003F00090937A0080937900F89407B600FCFDCFC3
:10040000E199FECF83E080935700E89507B600FCA2
:10041000FDCFE199FECF85E080935700E8952FBF8F
:10042000AF014F7350704E5F5F4F2091700030915D
:10043000710081E0E07CBF01C1DE9C0190937100FE
:10044000809370008091790082FF27C080917B00AB
:1004500090917C002817390701F560917200709126
:10046000730089EE91E01DD260917D0070917E0055
:100470006E5F7F4F8BEE91E014D2609170007091AF
:1004800071008DEE91E00DD28091790090917A000B
:100490008A6090937A008093790008959F92AF923A
:1004A000BF92CF92DF92EF92FF920F931F93CF9361
:1004B000DF9391B681B7815F81BFD9D1BD9AC598CD
:1004C000C59A88EE91E011D2809381008F3F19F494
:1004D0001092810011C189EE91E0F3D17C018BEE85
:1004E00091E0EFD1AC0120E0E2162AE0F206F0F054
:1004F00030E280309307D0F4E816F906B8F44E19CC
:100500005F0981E0B7012FEF3FEF58DE8C018DEEE0
:1005100091E0D7D10817190749F48091790090919B
:100520007A00816090937A008093790086EE91E062
:10053000C8D19093800080937F00DEC0209183001B
:100540004091840085E890E060EC08E134E7E32E18
:1005500030E0F32E80DD803C910508F4C9C085E8C9
:1005600090E068E141E014D1882309F0C1C0809196
:10057000850090E09C01277030702130310569F0D2
:100580002330310509F0AEC080918600909187003C
:100590009093840080938300A5C083FF26C0809140
:1005A000770083FD22C010927A0010927900109299
:1005B0007800B0927100A0927000B0927300A09287
:1005C000720010927E0010927D00E0E0F0E007B62D
:1005D00000FCFDCFE199FECF050110935700E8958F
:1005E00011243296E034F10591F7909186008091C4
:1005F0007800981709F076C080918800382F3B5F0B
:10060000882309F461C02FEF90E0A32FB0E0AD0183
:100610004150504005C0E857FF4F8081280F9F5F31
:10062000E92FF0E0E417F507B4F3A957BF4F8C9119
:100630008095281709F04DC080918B00863081F09D
:10064000873001F1882309F044C08091790082FF4E
:1006500042C087FF40C088E890E0DFDD92E03CC008
:10066000D0918C00C0E080918D009E01280F311D3B
:1006700030937C0020937B008091790090917A00E8
:1006800084601DC0D0908C00CC2480918D00960198
:10069000280F311DC90125FF1CC037FD1AC020914C
:1006A0007F00309180008217930721F096FD02C0F1
:1006B000232B79F48091790090917A00806890934F
:1006C0007A008093790005C080918B00813009F415
:1006D00082DE91E001C094E0809178008F5F80938A
:1006E000780001C091E0809185008093770001C07F
:1006F00091E0892F56DE04C011E0AA24AA94BA2CF6
:100700008091810080FD04C08091790080FD04C04B
:100710008091790081FF12CF91BEBAD0F89488EE13
:1007200091E060918100CBD0B9D0E0E0F5E009958F
:1007300080E090E0DF91CF911F910F91FF90EF90BB
:10074000DF90CF90BF90AF909F900895982FFB01BE
:1007500073E019C04830510510F068E002C0642F02
:100760006770308120E00AC0832F892787FF03C08C
:10077000990F972701C0990F330F2F5F2617A0F30A
:100780003196461B51094115510521F7892F0895CE
:10079000AF92BF92DF92EF92FF920F931F93DF937E
:1007A000CF930F92CDB7DEB75C01062FD42EFC019C
:1007B00081917F018295807F898380E0BE016F5F98
:1007C0007F4F44E050E0C2DF10E00150104033E0C2
:1007D000000F111F3A95E1F7B701A801B7DF482FC5
:1007E000DD2071F0282F30E02F70307040E0F501EF
:1007F000808182958F7090E02817390709F041E0D9
:10080000842F0F90CF91DF911F910F91FF90EF9068
:10081000DF90BF90AF9008951F920F920FB60F9286
:1008200011242F933F934F935F936F937F938F93F5
:100830009F93AF93BF93EF93FF93809160008130BC
:1008400029F0823019F4EAE0F5E00995FF91EF9183
:10085000BF91AF919F918F917F916F915F914F91D8
:100860003F912F910F900FBE0F901F90189581E030
:100870008093600080ED89BD8AB582608ABD83B7B0
:10088000816083BF89B7806189BF12BE7894089563
:1008900089B78F7E89BF109260000895E199FECFDD
:1008A0000895FF920F931F93F72E8C0128D0C80153
:1008B00001966F2D24D01F910F91FF9008951FD0A6
:1008C0000895FF920F931F938C01019610D0F82E7C
:1008D000C8010DD05F2D40E0282F30E0242B352BB0
:1008E000C9011F910F91FF90089501D00895E199DA
:1008F000FECF9FBB8EBBE09A99278DB30895262F1C
:10090000E199FECF1CBA9FBB8EBB2DBB0FB6F894EE
:0E091000E29AE19A0FBE01960895F894FFCF87
:04091E00FFFFFFFFD9
:00000001FF
