:100000001AC029C028C0A4C21FC325C024C023C051
:1000100022C0DCC2E1C01FC01EC01DC01CC05452A3
:1000200031E803D007000080E803D007000080E833
:1000300003D00700008011241FBECFE5D2E0DEBF51
:10004000CDBF10E0A0E6B0E001C01D92A63AB10716
:10005000E1F713D629C8D4CFEF92FF920F931F93E5
:10006000FC012223C1F0223059F424EFE22E21E0DA
:10007000F22E012D112D60ED77E080E090E011C0AF
:1000800098EEE92E93E0F92E012D112D68EE73E024
:1000900080E090E006C07B0100E010E0BA0180E063
:1000A00090E09F0140E050E0AED72FEF3FEF40E0FF
:1000B00050E0C2D72E0D3F1D401F511F84E0220F7C
:1000C000331F441F551F8A95D1F7C9011F910F9106
:1000D000FF90EF900895982FFB0173E019C048300E
:1000E000510510F068E002C0642F6770308120E095
:1000F0000AC0832F892787FF03C0990F972701C064
:10010000990F330F2F5F2617A0F33196461B510925
:100110004115510521F7892F8F7008950F931F9373
:10012000DF93CF9300D00F92CDB7DEB7082F6A834D
:100130004B83122F8295807F898380E0BE016F5FA1
:100140007F4F44E050E0C7DFBE016E5F7F4F48E065
:1001500050E0C1DFBE016D5F7F4F48E050E0BBDF84
:10016000112331F090E002950F70801391E0892FF8
:100170000F900F900F90CF91DF911F910F910895E5
:1001800048E350E050937C0040937B0081E08093F3
:100190007D0020EC3DE530937F0020937E0050935E
:1001A00087004093860082E08093880030938A0025
:1001B00020938900509392004093910084E08093B3
:1001C0009300309395002093940087B3876087BB9A
:1001D00088B3887F88BB08951F920F920FB60F9245
:1001E00011248F939F93AF93BF938091640090915C
:1001F0006500A0916600B091670080539F4FAF4F9C
:10020000BF4F8093640090936500A0936600B09305
:100210006700BF91AF919F918F910F900FBE0F908C
:100220001F90189580ED89BD8AB582608ABD83B71D
:10023000816083BF89B7806189BF12BE78940895B9
:100240008DE480BF1FBC8FEF8DBD0895809183002A
:10025000882321F440E050E06FEF05C040917E001C
:1002600050917F0060E080918E00882349F02091BA
:10027000890030918A002417350710F061E001C031
:100280009A0180919900882341F080919400909187
:1002900095008217930708F062E0862F08957F92F9
:1002A0008F929F92AF92BF92CF92DF92EF92FF9286
:1002B0000F931F93CF93DF937C018B01009709F479
:1002C00059C06115710509F455C0FB011082A3E8FE
:1002D000B0E090E08C91882349F0F8018081F7012B
:1002E000E80FF11D90838F5FF80180839F5F1B965D
:1002F000933081F7BB2433C06701C20ED31EF601D1
:100300007080E9012196CE0DDF1DA880872D90E039
:100310006BE070E066D6DC01A758BF4F8A2D90E0F5
:100320006BE070E05ED6FC01E758FF4F15962D910B
:100330003C911697858196818217930718F4F601F0
:10034000A08278824F5F242F30E0F801808190E016
:100350000197881999092817390774F2B3948B2CDF
:100360009924F801808190E001978816990614F489
:1003700040E0E9CFDF91CF911F910F91FF90EF9077
:10038000DF90CF90BF90AF909F908F907F90089517
:100390005DDFB82F8F3F09F4A2C090E06BE070E002
:1003A00020D6FC01E758FF4F828193819093A300F0
:1003B0008093A2008B2F90E06BE070E012D6FC01DE
:1003C000E758FF4FA481A093A4008B2F90E06BE02F
:1003D00070E007D6FC01E758FF4F85819681809336
:1003E000A5009DBD30E0BB2309F431E0832F90E0F0
:1003F0006BE070E0F6D5FC01E758FF4F828588235B
:1004000019F424E044E02AC0832F90E06BE070E010
:10041000E8D5FC01E758FF4F8281938190939F00BC
:1004200080939E00832F90E06BE070E0DAD5FC01B2
:10043000E758FF4F24812093A000832F90E06BE0CA
:1004400070E0CFD5FC01E758FF4F858196818093FE
:10045000A100A22B9BBD3F5F24E244E23B1709F4BD
:100460003F5F832F90E06BE070E0BBD5FC01E75865
:10047000FF4F8285882349F1832F90E06BE070E085
:10048000B0D5FC01E758FF4F8281938190939B0088
:1004900080939A00832F90E06BE070E0A2D5FC017E
:1004A000E758FF4F248120939C00832F90E06BE05E
:1004B00070E097D5FC01E758FF4F858196818093C6
:1004C0009D004064A22B9EBD242F88B3A82BA8BBFF
:1004D0001FBC88B7482B48BF89B7282B29BF089570
:1004E00089B78B7989BF88B3887F88BB0895E82F47
:1004F000F0E32BC072B77E1760F0872F90E08E1B61
:100500009109262F30E082179307ECF46E0F671BDA
:100510001BC0872F90E0A0E0B0E080539F4FAF4F0B
:10052000BF4F8E1B9109A109B109262F30E040E091
:1005300050E082179307A407B50728F48F2F871B75
:100540008E0F680F01C060E0E72F662399F60895CB
:100550001F920F920FB60F9211242F933F934F9338
:100560005F936F937F938F939F93AF93BF93EF931B
:10057000FF9322B789B78F7B89BF80919A009091B2
:100580009B00892B91F0822F60919D00B0DFE0915C
:100590009A00F0919B00908180919C008095892326
:1005A000808310929B0010929A00FF91EF91BF916F
:1005B000AF919F918F917F916F915F914F913F91FB
:1005C0002F910F900FBE0F901F9018951F920F92B2
:1005D0000FB60F9211242F933F934F935F936F9316
:1005E0007F938F939F93AF93BF93EF93FF9322B724
:1005F00089B78F7D89BF80919E0090919F00892B44
:1006000091F0822F6091A10072DFE0919E00F09145
:100610009F0090818091A000809589238083109213
:100620009F0010929E00FF91EF91BF91AF919F911B
:100630008F917F916F915F914F913F912F910F908B
:100640000FBE0F901F9018951F920F920FB60F922A
:1006500011242F933F934F935F936F937F938F93C7
:100660009F93AF93BF93EF93FF9322B789B78B7F8D
:1006700089BF80916900813021F41092690088DE81
:1006800022C08091A2009091A300892B91F0822F2B
:100690006091A5002CDFE091A200F091A300908171
:1006A0008091A4008095892380831092A3001092EA
:1006B000A20010926A0089B7806189BF8DE480BF73
:1006C0001FBC8FEF8DBDFF91EF91BF91AF919F91B7
:1006D0008F917F916F915F914F913F912F910F90EB
:1006E0000FBE0F901F901895EF92FF920F931F93DC
:1006F000CF93DF938330E8F490E067E070E071D44B
:1007000031E2E32E30E0F32EE80EF91E8C010D5F8E
:100710001F4FC0E0D0E0F7016491C80136D32196A5
:100720000894E11CF11C0F5F1F4FC730D10599F7EA
:100730000FC0C0E0D0E0FE01E25EFF4FE491CE01C9
:10074000805090406E2F21D32196C831D10599F762
:10075000DF91CF911F910F91FF90EF900895CF926D
:10076000DF92EF92FF920F931F93CF93DF9380E07E
:1007700090E071D3CEE1D0E0FE019491891789F425
:1007800081E090E068D32196FE019491219789172A
:1007900041F482E090E05FD32296FE0194918917A4
:1007A00011F08FEFA1DF49E7C42E40E0D42E00E026
:1007B00010E0C80167E070E014D48D5F9F4F37D31D
:1007C0007C01C80167E070E00CD48B5F9F4F2FD392
:1007D000EC01C80167E070E004D4875F9F4F3BD312
:1007E000982FF6018083CE15DF0530F0CE19DF0992
:1007F00080E0B701AE0105C0EC1AFD0A80E0BE0141
:10080000A70120E029DCF601968385830F5F1F4F47
:100810008BE090E0C80ED91E0330110551F6DF9130
:10082000CF911F910F91FF90EF90DF90CF9008959F
:100830002F923F924F925F926F927F928F929F92F0
:10084000AF92BF92CF92DF92EF92FF920F931F93DE
:10085000DF93CF93CDB7DEB72C970FB6F894DEBFFA
:100860000FBECDBF8F836B015C874B87222E902EEE
:10087000E886CA0105969E838D83EDD2882E91E08D
:10088000291611F481FD08C0822D692D488521E0CB
:1008900045DC882309F01DC1F6010580F681E02DB5
:1008A000FA83E983FB85F9872C852A878F2F922F7E
:1008B000BED25C018B859C8502969C838B83B7D2CC
:1008C0007C0174E0672E712CEB85FC856E0E7F1E1B
:1008D000C301C1D2382E422C5524820107701070FA
:1008E00001151105D1F004301105BCF48FB590E06D
:1008F000A0E0B0E06CE0880F991FAA1FBB1F6A95AB
:10090000D1F78059994AA340B04020F081E0F60128
:10091000828712C0F60112860FC0F601128681810D
:1009200090E087709070009739F004972CF48B85D5
:100930009C850696608129D203301105C9F00430E8
:10094000110524F402301105F1F507C0043011053A
:10095000D1F005301105B9F52BC0F6018181877002
:10096000823021F0F60110861782118621E02CC01A
:10097000F60181818770833021F0F601108617829D
:10098000118622E021C0F601818187708430D9F080
:1009900043FE0AC0882D80958170FEEF8F22882A41
:1009A0008D819E81682D02C0C301692DEED10BC0DF
:1009B000F60181818770853031F043FE02C0FFEF80
:1009C000FF838F8191DE20E080FC90943320C9F07A
:1009D000F6013081492D50E0832F90E0632D70E0C7
:1009E000931640F0481B590B6417750754F4932C69
:1009F000930E07C0841B950B6817790714F4932E88
:100A00009318F8856F2F70E0EA14FB0448F0992DD5
:100A100080E0A7014A195B09862B972BB50108C016
:100A2000992D80E0A5014E195F09862B972BB70100
:100A300013DBF601968385830250104002301105C6
:100A400008F044C0F6016580768054E0769467949F
:100A50005A95E1F781858823C1F4EA14FB0438F044
:100A60006A147B0450F0E614F70438F00EC0A614A4
:100A7000B70418F06E147F0440F489819A81F6015E
:100A8000968385831286908021C081E0F60181875C
:100A900043FE1CC0818183FD19C06781708561158B
:100AA000710519F47086678211C089859A855FD1B6
:100AB0008B819C81B3015BD1F60110861782118670
:100AC000F2E08F2A8D819E81682D5FD1F6019082A0
:100AD00021822C960FB6F894DEBF0FBECDBFCF910A
:100AE000DF911F910F91FF90EF90DF90CF90BF901B
:100AF000AF909F908F907F906F905F904F903F90BE
:100B00002F900895CF92DF92EF92FF920F931F9351
:100B10006C0180E069E770E043E050E0F60120817D
:100B20000181E28085DE81E064E870E04AE050E027
:100B3000F60123810481E5807BDE82E06FE870E0CE
:100B400041E150E0F60126810781E08471DE7EDB21
:100B5000382F8F3F09F48AC090E06BE070E041D2FB
:100B6000FC01E758FF4F4481832F90E06BE070E079
:100B700038D2FC01E758FF4FE580F68020E03323B0
:100B800009F421E0822F90E06BE070E02AD2FC01B2
:100B9000E758FF4F8285882321F4B0E000E010E0A1
:100BA00018C0822F90E06BE070E01BD2FC01E75888
:100BB000FF4FB481822F90E06BE070E012D2FC0115
:100BC000E758FF4F058116811695079516950795ED
:100BD0002F5F231709F42F5F822F90E06BE070E006
:100BE00000D2FC01E758FF4F8285882321F4A0E062
:100BF00020E030E020C0822F90E06BE070E0F1D187
:100C0000FC01E758FF4FA481822F90E06BE070E079
:100C1000E8D1FC01E758FF4F2581368136952795AD
:100C2000369527950217130730F48B2FBA2FA82F6C
:100C3000C80189019C01F701F695E795F695E795BE
:100C4000E01BF10B021B130B2115310511F421E000
:100C500030E00115110511F401E010E0309711F4B6
:100C6000E1E0F0E08A2F6B2F7F0196D11F910F9169
:100C7000FF90EF90DF90CF900895D4DA81DA8DE481
:100C800080BF1FBC8FEF8DBD6ADD20916400309165
:100C900065004091660050916700809164009091DA
:100CA0006500A0916600B0916700281739074A07D0
:100CB0005B0759F780916A00882339F789B78B79E8
:100CC00089BF88B3887F88BB80E790E068E4C5D09F
:100CD00080E790E017DF209164003091650040913B
:100CE0006600509167008091640090916500A0912A
:100CF0006600B0916700281739074A075B0759F764
:100D000020936B0030936C0040936D0050936E0005
:100D1000BCCF08950895E199FECF0895CF92DF9258
:100D2000EF92FF920F931F936A017B018C01642F56
:100D3000ADD155274F2D3E2D2D2DC8010196622F87
:100D4000A5D1970144275527C8010296622F9ED14D
:100D5000CF2CDD24EE24FF24C80103966C2D96D100
:100D60001F910F91FF90EF90DF90CF900895FF9229
:100D70000F931F93F72E8C0189D1C80101966F2D17
:100D800085D11F910F91FF90089580D108954F92C2
:100D90005F926F927F928F929F92AF92BF92CF920B
:100DA000DF92EF92FF920F931F934C01039666D14F
:100DB000E82EC401029662D1A82EC40101965ED12C
:100DC000482EC4015BD1FF2400E010E01E2D002757
:100DD000FF24EE24BB24CC24DD246501BB24AA24FB
:100DE000EA28FB280C291D2990E0A0E0B0E0E82AC1
:100DF000F92A0A2B1B2B552466247724762C652C84
:100E0000542C4424E428F52806291729B701C801E1
:100E10001F910F91FF90EF90DF90CF90BF90AF9018
:100E20009F908F907F906F905F904F900895FF926A
:100E30000F931F938C01019621D1F82EC8011ED16A
:100E40005F2D40E0282F30E0242B352BC9011F9166
:100E50000F91FF90089512D108950F920FB60F923F
:100E60001F935F933F93AF93BF93A82FB92F112781
:100E7000552737E088279927AA95BB9ABC98F894FC
:100E80005395B4995527523709F0FACF5527B4999D
:100E900023C0B49921C0B4991FC0B4991DC0B4999E
:100EA0001BC0B49919C0B49917C0B49915C0EFCF3D
:100EB000B49912C0B49910C0B4990EC0B4990CC0C2
:100EC000B4990AC0B49908C0B49906C0B49904C0D2
:100ED00053955F3F69F757C0382309F4A395B49B36
:100EE00015C0110F11601C93B49B13C0B49B11C0AB
:100EF000B49B0FC0B49B0DC0B49B0BC0B49B09C086
:100F0000B49B07C053955F3F79F73DC0110F1C9309
:100F1000000037E08395861759F6B49912C0B4994A
:100F200010C0B4990EC0B4990CC0B4990AC0B49959
:100F300008C0B49906C0B49904C053955A3269F7F1
:100F400022C0C39A5527B49B15C00196000000002B
:100F5000B49B16C0B49B14C0B49B12C0B49B10C009
:100F6000B49B0EC0B49B0CC0B49B0AC053955F3FAA
:100F700079F709C0C3985527019600000000CDCF2E
:100F8000C3985527CACFBF91AF913F915F911F91F1
:100F90000F900FBE0F9008950F920FB60F927F9390
:100FA000AF93BF93F89478B3782B762B742B78BBE0
:100FB000D9011197F1F778B3782778BBD801119749
:100FC000F1F778B3762778BBD7011197F1F778B3AB
:100FD000742778BBBF91AF917F910F900FBE0F9098
:100FE00008955527002480FF02C0060E571F660F84
:100FF000771F6115710521F096958795009799F7F0
:10100000952F802D0895FF27EE27BB27AA2760FF85
:1010100004C0A20FB31FE41FF51F220F331F441F8C
:10102000551F969587957795679589F70097760769
:1010300071F7CF01BD010895A1E21A2EAA1BBB1BB7
:10104000FD010DC0AA1FBB1FEE1FFF1FA217B30794
:10105000E407F50720F0A21BB30BE40BF50B661FAA
:10106000771F881F991F1A9469F76095709580956E
:1010700090959B01AC01BD01CF010895E199FECF90
:101080009FBB8EBBE09A99278DB30895262FE199D7
:10109000FECF1CBA9FBB8EBB2DBB0FB6F894E29A55
:0C10A000E19A0FBE01960895F894FFCF6E
:00000001FF
