:100000001AC029C028C0EEC169C225C024C023C0BF
:1000100022C026C248C61FC01EC01DC01CC05452EC
:1000200031E803D007000080E803D007000080E833
:1000300003D00700008011241FBECFE5D2E0DEBF51
:10004000CDBF10E0A0E6B0E001C01D92A93AB10713
:10005000E1F7FDD4E3C8D4CF48E350E050937C00EF
:1000600040937B0081E080937D0020EC3DE5309360
:100070007F0020937E00509388004093870082E0A9
:100080008093890030938B0020938A0050939400D2
:100090004093930084E080939500309397002093E1
:1000A000960087B3876087BB88B3887F88BB089535
:1000B0008DE480BF1FBC8FEF8DBD089580918300BC
:1000C000882321F440E050E06FEF05C040917E00AE
:1000D00050917F0060E080918F00882349F020914B
:1000E0008A0030918B002417350710F061E001C0C1
:1000F0009A0180919B00882341F080919600909115
:1001000097008217930708F062E0862F08957F9288
:100110008F929F92AF92BF92CF92DF92EF92FF9217
:100120000F931F93CF93DF937C018B01009709F40A
:1001300059C06115710509F455C0FB011082A3E88F
:10014000B0E090E08C91882349F0F8018081F701BC
:10015000E80FF11D90838F5FF80180839F5F1C96ED
:10016000933081F7BB2433C06701C20ED31EF60162
:100170007080E9012196CE0DDF1DA880872D90E0CB
:100180006CE070E0E8D7DC01A758BF4F8A2D90E003
:100190006CE070E0E0D7FC01E758FF4F15962D9119
:1001A0003C911697858196818217930718F4F60182
:1001B000A08278824F5F242F30E0F801808190E0A8
:1001C0000197881999092817390774F2B3948B2C71
:1001D0009924F801808190E001978816990614F41B
:1001E00040E0E9CFDF91CF911F910F91FF90EF9009
:1001F000DF90CF90BF90AF909F908F907F900895A9
:100200005DDFB82F8F3F09F4B4C090E066E070E086
:10021000A2D7FC01EE0FFF1FE558FF4F80819181AF
:100220009093A6008093A5008B2F90E063E070E090
:1002300092D7FC01EE0FFF1FEE0FFF1FE358FF4F99
:10024000A081A093A7008B2F90E06CE070E083D793
:10025000FC01E758FF4F858196818093A8009DBDE2
:1002600030E0BB2309F431E0832F90E06CE070E0D4
:1002700072D7FC01E758FF4F8285882319F424E0E8
:1002800044E030C0832F90E066E070E064D7FC016A
:10029000EE0FFF1FE558FF4F808191819093A200E0
:1002A0008093A100832F90E063E070E054D7FC01BD
:1002B000EE0FFF1FEE0FFF1FE358FF4F208120932B
:1002C000A300832F90E06CE070E045D7FC01E75875
:1002D000FF4F858196818093A400A22B9BBD3F5F39
:1002E00024E244E23B1709F43F5F832F90E06CE087
:1002F00070E031D7FC01E758FF4F8285882379F100
:10030000832F90E066E070E026D7FC01EE0FFF1F20
:10031000E558FF4F8081918190939E0080939D00CE
:10032000832F90E063E070E016D7FC01EE0FFF1F13
:10033000EE0FFF1FE358FF4F208120939F00832F74
:1003400090E06CE070E007D7FC01E758FF4F858133
:1003500096818093A0004064A22B9EBD242F88B379
:10036000A82BA8BB1FBC88B7482B48BF89B7282B30
:1003700029BF089589B78B7989BF88B3887F88BBE7
:100380000895E82FF0E32BC072B77E1760F0872F37
:1003900090E08E1B9109262F30E082179307ECF432
:1003A0006E0F671B1BC0872F90E0A0E0B0E080536A
:1003B0009F4FAF4FBF4F8E1B9109A109B109262F47
:1003C00030E040E050E082179307A407B50728F417
:1003D0008F2F871B8E0F680F01C060E0E72F662309
:1003E00099F608951F920F920FB60F9211242F9332
:1003F0003F934F935F936F937F938F939F93AF93AD
:10040000BF93EF93FF9322B789B78F7B89BF80910A
:100410009D0090919E00892B91F0822F6091A00009
:10042000B0DFE0919D00F0919E00908180919F004F
:1004300080958923808310929E0010929D00FF91E9
:10044000EF91BF91AF919F918F917F916F915F914C
:100450004F913F912F910F900FBE0F901F901895C5
:100460001F920F920FB60F9211242F933F934F9329
:100470005F936F937F938F939F93AF93BF93EF930C
:10048000FF9322B789B78F7D89BF8091A10090919A
:10049000A200892B91F0822F6091A40072DFE0917D
:1004A000A100F091A20090818091A3008095892302
:1004B00080831092A2001092A100FF91EF91BF9152
:1004C000AF919F918F917F916F915F914F913F91EC
:1004D0002F910F900FBE0F901F9018951F920F92A3
:1004E0000FB60F9211242F933F934F935F936F9307
:1004F0007F938F939F93AF93BF93EF93FF9322B715
:1005000089B78B7F89BF80916000813021F4109280
:10051000600076DE22C08091A5009091A600892B14
:1005200091F0822F6091A8002CDFE091A500F0915E
:10053000A60090818091A7008095892380831092E6
:10054000A6001092A5001092610089B7806189BF52
:100550008DE480BF1FBC8FEF8DBDFF91EF91BF91E8
:10056000AF919F918F917F916F915F914F913F914B
:100570002F910F900FBE0F901F9018952F923F92C2
:100580004F925F926F927F928F929F92AF92BF92A3
:10059000CF92DF92EF92FF920F931F93DF93CF934F
:1005A000CDB7DEB72F970FB6F894DEBF0FBECDBF25
:1005B00089877F876E873A012A87502EEB86CA018A
:1005C000059698878F83E9D4482EEE85FF850580B0
:1005D000F681E02DFA83E9836C867D86C301C9D458
:1005E0004C01C30102969E838D83C3D45C01F30149
:1005F0003496FC83EB83CF01D0D4082FFA852F2EBD
:100600003324A7E0CA2ED12CC220D320C114D10498
:10061000E9F024E0C216D104CCF48FB590E0A0E05C
:10062000B0E0FCE0880F991FAA1FBB1FFA95D1F715
:100630008059994AA340B04028F081E0EE85FF85BB
:10064000828721C0EE85FF8512861DC0EE85FF855D
:100650001286818190E0877090700097A1F00497D6
:1006600094F41081E6E0EE2EF12CE60CF71CC701A5
:1006700094D4181741F0C701EE85FF85608127D417
:10068000EE85FF851386F3E0CF16D10401F124E057
:10069000C216D10434F482E0C816D10409F047C070
:1006A00009C094E0C916D104F9F0E5E0CE16D104F2
:1006B000F1F531C0EE85FF8581818770823029F0A8
:1006C000EE85FF8510861782118621E031C0EE8508
:1006D000FF8581818770833029F0EE85FF85108644
:1006E0001782118622E024C0EE85FF858181877004
:1006F0008430E9F023FE0AC0842D80958170FEEFDE
:100700004F22482A8F819885642D03C08B819C815C
:10071000652DDDD30CC0EE85FF8581818770853026
:1007200031F023FE02C0FFEFF9878985F0D220E087
:1007300040FC50940023D1F0EE85FF853081452D9B
:1007400050E0832F90E0602F70E0531640F0481B7C
:10075000590B6417750754F4502E530E07C0841BB1
:10076000950B6817790714F4532E501AFB85EF2E5A
:10077000FF24A814B90448F0952D80E0A50148197C
:1007800059098E299F29B40108C0952D80E0A40144
:100790004A195B098E299F29B501A5D1EE85FF85F0
:1007A000968385838EEF9FEFC80ED91E92E0C916FF
:1007B000D10408F048C0EE85FF850581168174E0FC
:1007C000169507957A95E1F781858823C9F4A814D1
:1007D000B90438F00815190550F0A016B10638F024
:1007E0000FC08016910618F00A151B0548F4898180
:1007F0009A81EE85FF85968385831286508023C07B
:1008000081E0EE85FF85818723FE1DC0818183FD08
:100810001AC0678170856115710519F41087078307
:1008200012C08C859D8545D38D819E81B80141D3B1
:10083000EE85FF85108617821186F2E04F2A8F81A0
:100840009885642D44D3EE85FF8582858823D1F079
:10085000F080F514A1F48385833310F48F5F8387D0
:10086000EE85FF858385823369F483010A5F1F4F1C
:10087000C80193D3581631F0C8016F2D28D3EE85E7
:10088000FF851386EE85FF8550822A8521832F966A
:100890000FB6F894DEBF0FBECDBFCF91DF911F9191
:1008A0000F91FF90EF90DF90CF90BF90AF909F900F
:1008B0008F907F906F905F904F903F902F90089512
:1008C000CF92DF92EF92FF920F931F936C0180E023
:1008D00069E770E043E050E0F60120810181E280A9
:1008E0004DDE81E065E870E04AE050E0F6012381EA
:1008F0000481E58043DE82E061E970E041E150E09F
:10090000F60126810781E08439DED8DB382F8F3F5E
:1009100009F496C090E063E070E01DD4FC01EE0F96
:10092000FF1FEE0FFF1FE358FF4F4081832F90E022
:100930006CE070E010D4FC01E758FF4FE580F680D2
:1009400020E0332309F421E0822F90E06CE070E096
:1009500002D4FC01E758FF4F8285882321F4B0E0E0
:1009600000E010E01CC0822F90E063E070E0F3D361
:10097000FC01EE0FFF1FEE0FFF1FE358FF4FB0818A
:10098000822F90E06CE070E0E6D3FC01E758FF4F67
:100990000581168116950795169507952F5F2317E4
:1009A00009F42F5F822F90E06CE070E0D4D3FC015B
:1009B000E758FF4F8285882321F4A0E020E030E053
:1009C00024C0822F90E063E070E0C5D3FC01EE0FFD
:1009D000FF1FEE0FFF1FE358FF4FA081822F90E013
:1009E0006CE070E0B8D3FC01E758FF4F25813681F9
:1009F00036952795369527950217130730F48B2FD8
:100A0000BA2FA82FC80189019C01F701F695E79537
:100A1000F695E795E01BF10B021B130B2115310531
:100A200011F421E030E00115110511F401E010E0AE
:100A3000309711F4E1E0F0E08A2F6B2F7F0166D34D
:100A40001F910F91FF90EF90DF90CF90089551D1BB
:100A500003DB8DE480BF1FBC8FEF8DBD93D1209150
:100A60006B0030916C0040916D0050916E00809150
:100A70006B0090916C00A0916D00B0916E002817F2
:100A800039074A075B0759F780916100882339F7D6
:100A900089B78B7989BF88B3887F88BB80E790E06E
:100AA00068E47DD280E790E00BDF20916B0030910D
:100AB0006C0040916D0050916E0080916B009091A0
:100AC0006C00A0916D00B0916E00281739074A079D
:100AD0005B0759F7209362003093630040936400F2
:100AE00050936500BCCFEF92FF920F931F93FC01D0
:100AF0002223C1F0223059F424EFE22E21E0F22E1D
:100B0000012D112D60ED77E080E090E011C098EEAE
:100B1000E92E93E0F92E012D112D68EE73E080E0AF
:100B200090E006C07B0100E010E0BA0180E090E0B8
:100B30009F0140E050E021D32FEF3FEF40E050E035
:100B400035D32E0D3F1D401F511F84E0220F331F50
:100B5000441F551F8A95D1F7C9011F910F91FF902E
:100B6000EF900895982FFB0173E019C048305105AC
:100B700010F068E002C0642F6770308120E00AC086
:100B8000832F892787FF03C0990F972701C0990FEB
:100B9000330F2F5F2617A0F33196461B51094115DD
:100BA000510521F7892F0895AF92BF92DF92EF92FE
:100BB000FF920F931F93DF93CF930F92CDB7DEB7C2
:100BC0005C01062FD42EFC0181917F018295807FEC
:100BD000898380E0BE016F5F7F4F44E050E0C2DF59
:100BE00010E00150104033E0000F111F3A95E1F77B
:100BF000B701A801B7DF482FDD2071F0282F30E0C2
:100C00002F70307040E0F501808182958F7090E008
:100C10002817390709F041E0842F0F90CF91DF9119
:100C20001F910F91FF90EF90DF90BF90AF900895CC
:100C30000F931F93DF93CF9300D00F92CDB7DEB702
:100C4000082F6A834B83122F8295807F898380E0EF
:100C5000BE016F5F7F4F44E050E084DFBE016E5FF6
:100C60007F4F48E050E07EDFBE016D5F7F4F48E080
:100C700050E078DF482F112369F0282F30E02F70E3
:100C8000307040E002950F70802F90E028173907F0
:100C900009F041E0842F0F900F900F90CF91DF91DA
:100CA0001F910F9108951F920F920FB60F9211246A
:100CB0008F939F93AF93BF9380916B0090916C0043
:100CC000A0916D00B0916E0080539F4FAF4FBF4F0A
:100CD00080936B0090936C00A0936D00B0936E00B6
:100CE000BF91AF919F918F910F900FBE0F901F906A
:100CF000189580ED89BD8AB582608ABD83B7816011
:100D000083BF89B7806189BF12BE78940895EF923E
:100D1000FF920F931F93CF93DF938330E8F490E01B
:100D200067E070E018D241E2E42E40E0F42EE80ED5
:100D3000F91E8C010D5F1F4FC0E0D0E0F7016491F8
:100D4000C801C5D021960894E11CF11C0F5F1F4F0C
:100D5000C730D10599F70FC0C0E0D0E0FE01E25ED8
:100D6000FF4FE491CE01805090406E2FB0D021967D
:100D7000C831D10599F7DF91CF911F910F91FF9065
:100D8000EF900895CF92DF92EF92FF920F931F930F
:100D9000CF93DF9380E090E000D1CEE1D0E0FE0180
:100DA0009491891789F481E090E0F7D02196FE01B3
:100DB00094912197891741F482E090E0EED0229639
:100DC000FE019491891711F08FEFA1DF59E7C52E2D
:100DD00050E0D52E00E010E0C80167E070E0BBD124
:100DE0008D5F9F4FC6D07C01C80167E070E0B3D132
:100DF0008B5F9F4FBED0EC01C80167E070E0ABD1C4
:100E0000875F9F4FCAD0982FF6018083CE15DF05EC
:100E100030F0CE19DF0980E0B701AE0105C0EC1A51
:100E2000FD0A80E0BE01A70120E05DDEF6019683A9
:100E300085830F5F1F4F8CE090E0C80ED91E0330F2
:100E4000110551F6DF91CF911F910F91FF90EF9017
:100E5000DF90CF90089508950895E199FECF089509
:100E6000CF92DF92EF92FF920F931F936A017B0163
:100E70008C01642FC5D155274F2D3E2D2D2DC80136
:100E80000196622FBDD1970144275527C8010296CC
:100E9000622FB6D1CF2CDD24EE24FF24C8010396A7
:100EA0006C2DAED11F910F91FF90EF90DF90CF90FE
:100EB0000895FF920F931F93F72E8C01A1D1C801C3
:100EC00001966F2D9DD11F910F91FF90089598D19C
:100ED00008954F925F926F927F928F929F92AF92FE
:100EE000BF92CF92DF92EF92FF920F931F934C012C
:100EF00003967ED1E82EC40102967AD1A82EC401B1
:100F0000019676D1482EC40173D1FF2400E010E091
:100F10001E2D0027FF24EE24BB24CC24DD246501F4
:100F2000BB24AA24EA28FB280C291D2990E0A0E074
:100F3000B0E0E82AF92A0A2B1B2B552466247724D3
:100F4000762C652C542C4424E428F52806291729EE
:100F5000B701C8011F910F91FF90EF90DF90CF90E4
:100F6000BF90AF909F908F907F906F905F904F90C9
:100F70000895FF920F931F938C01019639D1F82E9B
:100F8000C80136D15F2D40E0282F30E0242B352BCF
:100F9000C9011F910F91FF9008952AD108950F92D2
:100FA0000FB60F92CF93DF93CDB7DEB76F927F92DC
:100FB0006F8078844F925F9249845A842F923F9237
:100FC0002B843C841F935F933F93AF93BF93A82FD1
:100FD000B92F1127552737E088279927AA95BB9A5B
:100FE000BC98F8945395B4995527523709F0FACF25
:100FF0005527B49923C0B49921C0B4991FC0B4999E
:101000001DC0B4991BC0B49919C0B49917C0B49944
:1010100015C0EFCFB49912C0B49910C0B4990EC0E6
:10102000B4990CC0B4990AC0B49908C0B49906C068
:10103000B49904C053955F3F69F757C0382309F44A
:10104000A395B49B15C0110F11601C93B49B13C0E2
:10105000B49B11C0B49B0FC0B49B0DC0B49B0BC01C
:10106000B49B09C0B49B07C053955F3F79F73DC05F
:10107000110F1C93000037E08395861759F6B49939
:1010800012C0B49910C0B4990EC0B4990CC0B499F0
:101090000AC0B49908C0B49906C0B49904C0539565
:1010A0005A3269F722C0C39A5527B49B15C00196DE
:1010B00000000000B49B16C0B49B14C0B49B12C0C7
:1010C000B49B10C0B49B0EC0B49B0CC0B49B0AC0B0
:1010D00053955F3F79F709C0C398552701960000E3
:1010E0000000CDCFC3985527CACFBF91AF913F9194
:1010F0005F911F913F902F905F904F907F906F90E6
:10110000DF91CF910F900FBE0F9008950F920FB601
:101110000F927F93AF93BF93F89478B3782B762B8D
:10112000742B78BBD9011197F1F778B3782778BB86
:10113000D8011197F1F778B3762778BBD7011197CB
:10114000F1F778B3742778BBBF91AF917F910F907F
:101150000FBE0F9008955527002480FF02C0060E91
:10116000571F660F771F6115710521F096958795BA
:10117000009799F7952F802D0895FF27EE27BB271D
:10118000AA2760FF04C0A20FB31FE41FF51F220FA0
:10119000331F441F551F969587957795679589F757
:1011A0000097760771F7CF01BD010895A1E21A2ECD
:1011B000AA1BBB1BFD010DC0AA1FBB1FEE1FFF1FFB
:1011C000A217B307E407F50720F0A21BB30BE40B4B
:1011D000F50B661F771F881F991F1A9469F7609592
:1011E0007095809590959B01AC01BD01CF0108954C
:1011F000E199FECF9FBB8EBBE09A99278DB30895EE
:10120000262FE199FECF1CBA9FBB8EBB2DBB0FB61C
:10121000F894E29AE19A0FBE01960895F894FFCFF0
:00000001FF
