:1000000028C042C041C0F4C03FC03EC03DC03CC05B
:100010003BC03AC0EEC738C037C036C035C0424FCB
:100020004F5400000000000000000000000000002D
:10003000000000FFFF545231E803D00700008000A9
:10004000E803D00700008000E803D007000080002C
:10005000FFFF11241FBECFE5D2E0DEBFCDBF10E011
:10006000A0E6B0E0E4ECF3E102C005900D92AE36FC
:10007000B107D9F710E0AEE6B0E001C01D92A23D95
:10008000B107E1F7A3D69CC9BBCF0F920FB60F9271
:100090001F935F933F93AF93BF93A82FB92F11275F
:1000A000552737E088279927AA95BB9ABC9853957E
:1000B000B4995527B4995527B4995527B49955271C
:1000C000B4995527B4995527B4995527B49955270C
:1000D000573209F0ECCF5527B49923C0B49921C009
:1000E000B4991FC0B4991DC0B4991BC0B49919C06C
:1000F000B49917C0B49915C0EFCFB49912C0B49990
:1001000010C0B4990EC0B4990CC0B4990AC0B49987
:1001100008C0B49906C0B49904C053955F3F69F70D
:100120005AC0382309F4A3950000B49B15C0110FE1
:1001300011601C93B49B13C0B49B11C0B49B0FC03F
:10014000B49B0DC0B49B0BC0B49B09C0B49B07C04B
:1001500053955F3F79F73FC0110F1C93000037E0C4
:100160008395861751F612B7B49912C0B49910C08E
:10017000B4990EC0B4990CC0B4990AC0B49908C01F
:10018000B49906C0B49904C053955A3269F723C094
:10019000C39A55270000B49B15C0019600000000CB
:1001A000B49B16C0B49B14C0B49B12C0B49B10C0C7
:1001B000B49B0EC0B49B0CC0B49B0AC053955F3F68
:1001C00079F709C0C3985527019600000000CCCFED
:1001D000C3985527C9CFA3951D9312B71C93BF9100
:1001E000AF913F915F911F910F900FBE0F900895B7
:1001F0000F920FB60F92CF93DF93CDB7DEB76F920A
:100200007F926E807D800F931F9307E510E060164C
:10021000710650F00BEE10E00615170528F0C39894
:10022000882799271D830E831F910F917F906F90D0
:10023000DF91CF910F900FBE0F9018950F920FB6D0
:100240000F927F93AF93BF93F89478B3782B762B6C
:10025000742B78BBD9011197F1F778B3782778BB65
:10026000D8011197F1F778B3762778BBD7011197AA
:10027000F1F778B3742778BBBF91AF917F910F905E
:100280000FBE0F90089548E350E05093A0004093B4
:100290009F0081E08093A10020EC3DE53093A30016
:1002A0002093A2005093AE004093AD0082E0809373
:1002B000AF003093B1002093B0005093BC00409346
:1002C000BB0084E08093BD003093BF002093BE004C
:1002D00087B3876087BB88B3887F88BB0895EF9218
:1002E000FF921F93CF93DF93C0917400D09175005C
:1002F000209709F468C08091790090917A00892B49
:1003000009F461C020917700822F869586958695A5
:10031000FE01E80FF11D277080E890E002C095957E
:1003200087952A95E2F7108118236091780070E094
:1003300080E090E020E83EE340E050E0D0D72CE0C1
:1003400096958795779567952A95D1F7DB0150911A
:10035000760020E030E080E8E82EF12C01C0182F74
:100360002A0F3B1F809177008F5F652FD1D7492FD0
:1003700090937700892F869586958695FE01E80FE4
:10038000F11DE0818091790090917A00019790931E
:100390007A0080937900892B81F04770C70102C0F1
:1003A000959587954A95E2F78E23112319F08823B6
:1003B000B1F60BC0882399F202C0112331F43095B5
:1003C00021953F4F02C020E030E0C901DF91CF917D
:1003D0001F91FF90EF900895AF92BF92CF92DF925E
:1003E000EF92FF920F931F93CF93DF936C017B01EA
:1003F000009709F453C06115710509F44FC0EC0171
:10040000E1EAF0E0DB01AA248781882361F08181A1
:100410009281969587959695879599838883808113
:100420008C93A39403C0198218821C9222963E9644
:10043000119680E0EB3CF80739F742E050E02CC021
:10044000FC01EE0FFF1FEC0DFD1D00811181BC01B1
:100450006F5F7F4FEB01CC0FDD1FCC0DDD1D2881C1
:1004600039812017310770F4D701A80FB91F9C916B
:1004700031832083F701E60FF71F80818C93198366
:1004800008839083B3948B2D90E084179507C4F272
:1004900041505040442319F0BB24F5CFAA248A2DA3
:1004A000DF91CF911F910F91FF90EF90DF90CF9050
:1004B000BF90AF9008950F931F930FB580916F0079
:1004C000801718F4102F181B03C0182F1095100F49
:1004D0002091620030916300121613067CF5812F83
:1004E00090E0821793073CF4281B390B309363008C
:1004F000209362004DC0C598F2DE90936300809314
:100500006200892B09F044C08091700090917100C5
:10051000009719F42DE033E002C022E43FE030936D
:10052000630020936200892B21F080917B0080FD85
:100530002FC088279927821B930B26C021153105D0
:1005400039F1412F50E088279927841B950B2817F4
:1005500039073CF4420F531F5093630040936200ED
:1005600017C0C59ABCDE9093630080936200892B0C
:1005700079F48091700090917100892B19F48DE0CD
:1005800093E002C082E49FE0909363008093620056
:100590008091600090916100212F30E02817390789
:1005A00038F4821B930B909361008093600004C029
:1005B000109261001092600000936F001F910F91E4
:1005C0000895CF92DF92EF92FF920F931F93CF93F4
:1005D000DF936B017A01122F8823C1F0EB0126967D
:1005E000CE0169D6181719F0CE01612F4ED6E6015B
:1005F0002796CE0160D6081719F0CE01602F45D698
:10060000F701608162FD0BC0646005C0FA01608182
:1006100062FF05C06B7F6083C601059636D6DF9109
:10062000CF911F910F91FF90EF90DF90CF900895A1
:100630002F923F924F925F926F927F928F929F92F2
:10064000AF92BF92CF92DF92EF92FF920F931F93E0
:10065000DF93CF93CDB7DEB761970FB6F894DEBFC7
:100660000FBECDBF8C876B015E874D872F87902E85
:100670008E2C9A012B5F3F4F3B872A87C9011BD6DF
:1006800089838D859E8504969987888714D68D8366
:100690009F85992371F489818271823181F4ED8182
:1006A000EE2369F0002359F0EE2049F4F1E0FF87D2
:1006B00003C02F85213019F4898181FD08C08F8501
:1006C000692D482D21E05AD4882309F0CBC2F601C8
:1006D00026803780F82DFF73FC832D85288B3E857F
:1006E000398BC901D4D52C018D859E8502969F83B7
:1006F0008E83CDD53C019FB580916E00891718F48B
:10070000981B892F02C08095890F90E0A0E0B0E08F
:10071000BA2FA92F982F88279B838A839F85A92E7C
:10072000BB2407E0E02EF12CEA20FB20E114F104C9
:1007300081F0E4E0EE16F10464F42A813B8129594A
:100740003A4320F081E0F601848718C0F601148650
:1007500015C0F6011486808190E087709070009734
:1007600069F004975CF481E06D857E85AE014F5F92
:100770005F4F21810C8125DFF6011586F3E0EF162E
:10078000F104F9F024E0E216F10434F432E0E31667
:10079000F10409F0C1C00AC084E0E816F104E1F0F8
:1007A00095E0E916F10409F0B7C081C0F601808137
:1007B0008770823021F0F60111861086128621E0C2
:1007C000ACC0F60180818770833021F0F60111867C
:1007D0001086128622E0A1C0A3FE9EC0F601808191
:1007E000282F30E0C90187709070049709F094C0F9
:1007F00023FD92C0F7E88F1631F1F81540F025E19E
:100800008216D9F035E6831609F086C00BC08AE956
:10081000881629F09CE9891609F07EC033C08981C9
:100820008F7E02C089818061898388859985692D41
:100830002CD58A859B8569810FC08981682F609539
:1008400061708E7F05C08981682F60956870877F91
:10085000682B69838A859B8518D588E1809376000B
:100860001092770084E18093780086E990E090937D
:100870007A00809379008BE690E0909375008093E6
:10088000740011C260918000615FE3E2E91518F025
:10089000162F190D01C0162F8CE190E00CD5811791
:1008A00021F08CE190E0612FF0D411BF35C0A3FEA0
:1008B00033C0F6018081282F30E0C9018770907025
:1008C000059751F523FD28C0282D30E0992D80E0B3
:1008D000282B392BFAE52E393F0791F089EE2A387B
:1008E000380721F025573641B9F405C08C8510D45E
:1008F00025E630E0C6C18FEF0BD427E630E0C1C15A
:1009000080E06D857E85AE014F5F5F4F292D0C81A4
:1009100058DE29E630E0B5C120E0F6018485882361
:1009200009F475C0898180FD9094FD81FF23E9F071
:1009300084FD1BC0F6013181492D50E0832F90E0EA
:10094000FD816F2F70E0931640F0481B590B641720
:1009500075075CF49F2E930E08C0841B950B6817D7
:1009600079071CF4932E8D81981A682D70E0641419
:10097000750450F0992D80E0607CA301441955095D
:10098000862B972BB20109C0992D80E0607CA201D3
:1009900046195709862B972BB3018FD2F6019783FF
:1009A0008683FD81FF2399F1898184FF30C08A818C
:1009B0009B81880F892F881F990B91956F2F70E06D
:1009C0007CD46CE970E0B0D4660F771F6F5F7F4F07
:1009D000F601868197812816390650F48219930909
:1009E00068177907A0F4620D731D778366830FC0C3
:1009F0008215930560F49101281B390B6217730768
:100A000030F4C101861B970BF60197838683F1E0D2
:100A1000EF16F10459F021E0E216F1040CF401C1E3
:100A200034E0E316F1040CF0FCC063C08C81882331
:100A300029F1F6018281882309F1FC814F2F50E0D2
:100A4000282F30E0CA01822793278E719070892B5E
:100A500049F4F0FD02C020FD07C0F6018385833014
:100A600018F00CC020FD0AC020FD04C0F6018385EB
:100A7000833010F0F601138621E00AC080916000F7
:100A800090916100892B19F483E0F601838720E0BF
:100A9000F60193859330C0F4898182FF04C0F6018A
:100AA0008181981611F483E00EC0981620F49130DD
:100AB00031F082E007C0891538F4923011F483E0F8
:100AC00001C081E0F6018387809160009091610010
:100AD000892B19F4222309F4A4C0F60183858330FD
:100AE00008F09FC03782268214869180F281FC83B1
:100AF00098C0F60106811781A4E016950795AA957E
:100B0000E1F78285882349F56414750438F00415EB
:100B1000150550F06016710638F01FC040165106DA
:100B200018F006151705C8F4F601378226821486D8
:100B30009180F281FC838091790090917A00892BD9
:100B400009F06FC088E080937600109277008AE009
:100B50008093780084E690E054C081E0F6018287BB
:100B6000A3FE3FC0808190E0A826B926F7E0AF221F
:100B7000BB24AB28B1F583FD34C0F60160857185D7
:100B80006115710519F4118700874BC0888999890F
:100B90006ED38E819F81B8016AD3F60111861086CB
:100BA00012866981626069838A859B856ED380E045
:100BB0006D857E85AE014F5F5F4F292D0C8101DD74
:100BC00088E1809376001092770084E1809378002A
:100BD00086E990E090937A00809379008BE690E02C
:100BE00016C08091790090917A00892BD1F488E029
:100BF000809376001092770082E38093780084E1FE
:100C000090E090937A008093790084E690E090934E
:100C100075008093740081E090E09093630080936E
:100C20006200F60184858823B9F08181891591F4E9
:100C30008585833310F48F5F8587F6018585823340
:100C400059F481E06D857E85AE014F5F5F4F292DA0
:100C50000C81B7DCF60115862F85F6012083918281
:100C60003C8132838C85882329F5898190E08870C6
:100C70009070E3E095958795EA95E1F780937B0086
:100C800019C080E1809376001092770082E3809310
:100C9000780084E690E090937A0080937900309316
:100CA00075002093740081E090E09093630080933E
:100CB000620032CE61960FB6F894DEBF0FBECDBF94
:100CC000CF91DF911F910F91FF90EF90DF90CF9028
:100CD000BF90AF909F908F907F906F905F904F905C
:100CE0003F902F900895CF92DF92EF92FF920F9353
:100CF0001F93DF93CF93CDB7DEB729970FB6F89444
:100D0000DEBF0FBECDBF6C0180E06CE970E043E058
:100D100050E0F60120810181E2808ADC81E06AEA0C
:100D200070E04BE050E0F60123810481E58080DC37
:100D300082E068EB70E043E150E0F6012681078134
:100D4000E08476DCCE010496BE016F5F7F4F44DB0A
:100D5000882369F12E813F8148855985421B530BB9
:100D6000598748878C819D81281B390B3F832E83AF
:100D7000892B21F481E090E09D838C83232B21F447
:100D800081E090E09F838E83452B21F481E090E009
:100D9000998788878FB580936E002C813D810E8165
:100DA0001F81E884F98489816A814B8147DA299619
:100DB0000FB6F894DEBF0FBECDBFCF91DF911F916C
:100DC0000F91FF90EF90DF90CF9008950F931F93B6
:100DD000CF93DF9381B78093800050D1BD9AC5989F
:100DE000C59A51DA8DE080BF1FBC8FEF8DBDCDD18C
:100DF0008CE190E060D2482F80918000841748F405
:100E0000242F30E090E0C2968217930714F041BF80
:100E100003C081B7815F81BF8091720090E06BE079
:100E200070E04BD28C010A571F4F88B3887F88BB74
:100E300042DB32D18FB58D538EBD88B7806488BFB9
:100E400089B7806489BFC80168E41FD9EC0180E0DC
:100E500090E0F5D089B78F7B89BF27D1C834D10501
:100E6000B8F0CE0168E4F8014185228527D18823B6
:100E700079F010937100009370008091720090E0FF
:100E800001968170907080937200109273000CC074
:100E900080917300843120F48F5F8093730004C0CD
:100EA000109271001092700080917000909171000A
:100EB000009709F4B1CF17DFAFCFEF92FF920F93F6
:100EC0001F93FC012223C1F0223059F424EFE22EBB
:100ED00021E0F22E012D112D60ED77E080E090E011
:100EE00011C098EEE92E93E0F92E012D112D68EE38
:100EF00073E080E090E006C07B0100E010E0BA0102
:100F000080E090E09F0140E050E0E9D12FEF3FEF1B
:100F100040E050E01DD22E0D3F1D401F511F84E0C8
:100F2000220F331F441F551F8A95D1F7C9011F9106
:100F30000F91FF90EF900895982FFB0173E019C077
:100F40004830510510F068E002C0642F67703081AE
:100F500020E00AC0832F892787FF03C0990F9727B6
:100F600001C0990F330F2F5F2617A0F33196461B50
:100F700051094115510521F7892F08950F931F93AA
:100F8000DF93CF9300D00F92CDB7DEB7082F6A83DF
:100F90004B83122F8295807F898380E0BE016F5F33
:100FA0007F4F44E050E0C8DFBE016E5F7F4F48E0F6
:100FB00050E0C2DFBE016D5F7F4F48E050E0BCDF14
:100FC000482F112369F0282F30E02F70307040E057
:100FD00002950F70802F90E02817390709F041E043
:100FE000842F0F900F900F90CF91DF911F910F9151
:100FF00008951F920F920FB60F9211248F939F9313
:10100000AF93BF9380917C0090917D00A0917E0072
:10101000B0917F0080539F4FAF4FBF4F80937C00B4
:1010200090937D00A0937E00B0937F00BF91AF911D
:101030009F918F910F900FBE0F901F901895803445
:10104000910591F08134910518F4019759F408C085
:1010500021E08030920751F08050944019F408C08C
:1010600091E007C090E005C093E003C094E001C0A8
:1010700095E083B7887F982B93BF089580ED89BD55
:101080008AB582608ABD83B7816083BF89B780617A
:1010900089BF12BE7894089580E090E0D0DF89B7D0
:1010A0008F7E89BF8FEF89BD089580ED89BD89B797
:1010B000806189BF81E090E0C2DF0895AC0180913A
:1010C0008100909182004817590771F48091850042
:1010D0008B3080F48F5F809385008A3059F4509371
:1010E00084004093830006C05093820040938100A7
:1010F000109285002091830030918400421753079D
:1011000011F481E0089580E0232B09F481E0089533
:10111000EF92FF920F931F93CF93DF938330F8F4F6
:1011200090E053E0880F991F5A95E1F748E3E42EC9
:1011300040E0F42EE80EF91E8C010D5F1F4FC0E059
:10114000D0E0F7016491C801A0D021960894E11C79
:10115000F11C0F5F1F4FC830D10599F70FC0C0E0D9
:10116000D0E0FE01EB5CFF4FE491CE018050904057
:101170006E2F8BD02196CB31D10599F7DF91CF918E
:101180001F910F91FF90EF900895AF92BF92CF9271
:10119000DF92EF92FF920F931F93CF93DF9380E044
:1011A00090E089D0C5E3D0E0FE019491891789F4DD
:1011B00081E090E080D02196FE01949121978917DB
:1011C00041F482E090E077D02296FE019491891755
:1011D00011F08FEF9DDF7DE9E72E70E0F72EAA2456
:1011E000BB24850163E0000F111F6A95E1F7C80178
:1011F0008D5F9F4F4CD06C01C8018B5F9F4F47D0D4
:10120000EC01C801875F9F4F56D0F7018083C8016A
:10121000865F9F4F50D0F70181839081CC15DD050B
:1012200030F0CC19DD0980E0B601AE0105C0CC1A62
:10123000DD0A80E0BE01A60120E03FDEF7019683D3
:1012400085830894A11CB11C8EE090E0E80EF91E85
:1012500093E0A916B10429F6DF91CF911F910F9168
:10126000FF90EF90DF90CF90BF90AF900895FF92E6
:101270000F931F93F72E8C0195D0C80101966F2D07
:1012800091D01F910F91FF9008958CD00895FF92F7
:101290000F931F938C0101967DD0F82EC8017AD050
:1012A0005F2D40E0282F30E0242B352BC9011F9102
:1012B0000F91FF9008956ED008955527002480FF68
:1012C00002C0060E571F660F771F6115710521F0CA
:1012D00096958795009799F7952F802D0895FF276C
:1012E000EE27BB27AA2760FF04C0A20FB31FE41F8D
:1012F000F51F220F331F441F551F9695879577952D
:10130000679589F70097760771F7CF01BD010895BA
:10131000991B79E004C0991F961708F0961B881F47
:101320007A95C9F780950895AA1BBB1B51E107C0A8
:10133000AA1FBB1FA617B70710F0A61BB70B881F65
:10134000991F5A95A9F780959095BC01CD010895F4
:10135000A1E21A2EAA1BBB1BFD010DC0AA1FBB1FB9
:10136000EE1FFF1FA217B307E407F50720F0A21B2B
:10137000B30BE40BF50B661F771F881F991F1A9498
:1013800069F760957095809590959B01AC01BD01C2
:10139000CF010895E199FECF9FBB8EBBE09A9927BC
:1013A0008DB30895262FE199FECF1CBA9FBB8EBB4B
:1013B0002DBB0FB6F894E29AE19A0FBE01960895FC
:0413C000F894FFCFCF
:0E13C40096984B4C5501000140015001550018
:00000001FF
