:1000000028C042C041C0F4C03FC03EC03DC03CC05B
:100010003BC03AC02AC738C037C036C035C0424F8F
:100020004F5400000000000000000000000000002D
:10003000000000FFFF545231E803D00700008000A9
:10004000E803D00700008000E803D007000080002C
:10005000FFFF11241FBECFE5D2E0DEBFCDBF10E011
:10006000A0E6B0E0E4E1F2E102C005900D92AE3608
:10007000B107D9F710E0AEE6B0E001C01D92A23D95
:10008000B107E1F73CD6C4C8BBCF0F920FB60F92B1
:100090001F935F933F93AF93BF93A82FB92F11275F
:1000A000552737E088279927AA95BB9ABC9853957E
:1000B000B4995527B4995527B4995527B49955271C
:1000C000B4995527B4995527B4995527B49955270C
:1000D000573209F0ECCF5527B49923C0B49921C009
:1000E000B4991FC0B4991DC0B4991BC0B49919C06C
:1000F000B49917C0B49915C0EFCFB49912C0B49990
:1001000010C0B4990EC0B4990CC0B4990AC0B49987
:1001100008C0B49906C0B49904C053955F3F69F70D
:100120005AC0382309F4A3950000B49B15C0110FE1
:1001300011601C93B49B13C0B49B11C0B49B0FC03F
:10014000B49B0DC0B49B0BC0B49B09C0B49B07C04B
:1001500053955F3F79F73FC0110F1C93000037E0C4
:100160008395861751F612B7B49912C0B49910C08E
:10017000B4990EC0B4990CC0B4990AC0B49908C01F
:10018000B49906C0B49904C053955A3269F723C094
:10019000C39A55270000B49B15C0019600000000CB
:1001A000B49B16C0B49B14C0B49B12C0B49B10C0C7
:1001B000B49B0EC0B49B0CC0B49B0AC053955F3F68
:1001C00079F709C0C3985527019600000000CCCFED
:1001D000C3985527C9CFA3951D9312B71C93BF9100
:1001E000AF913F915F911F910F900FBE0F900895B7
:1001F0000F920FB60F92CF93DF93CDB7DEB76F920A
:100200007F926E807D800F931F9307E510E060164C
:10021000710650F00BEE10E00615170528F0C39894
:10022000882799271D830E831F910F917F906F90D0
:10023000DF91CF910F900FBE0F9018950F920FB6D0
:100240000F927F93AF93BF93F89478B3782B762B6C
:10025000742B78BBD9011197F1F778B3782778BB65
:10026000D8011197F1F778B3762778BBD7011197AA
:10027000F1F778B3742778BBBF91AF917F910F905E
:100280000FBE0F90089548E350E05093A0004093B4
:100290009F0081E08093A10020EC3DE53093A30016
:1002A0002093A2005093AE004093AD0082E0809373
:1002B000AF003093B1002093B0005093BC00409346
:1002C000BB0084E08093BD003093BF002093BE004C
:1002D00087B3876087BB88B3887F88BB0895EF9218
:1002E000FF921F93CF93DF93C0917400D09175005C
:1002F000209709F468C08091790090917A00892B49
:1003000009F461C020917700822F869586958695A5
:10031000FE01E80FF11D277080E890E002C095957E
:1003200087952A95E2F7108118236091780070E094
:1003300080E090E020E83EE340E050E00CD72CE085
:1003400096958795779567952A95D1F7DB0150911A
:10035000760020E030E080E8E82EF12C01C0182F74
:100360002A0F3B1F809177008F5F652F0DD7492F94
:1003700090937700892F869586958695FE01E80FE4
:10038000F11DE0818091790090917A00019790931E
:100390007A0080937900892B81F04770C70102C0F1
:1003A000959587954A95E2F78E23112319F08823B6
:1003B000B1F60BC0882399F202C0112331F43095B5
:1003C00021953F4F02C020E030E0C901DF91CF917D
:1003D0001F91FF90EF9008958091A800882321F449
:1003E00040E050E06FEF05C04091A2005091A300A3
:1003F00060E08091B600882349F02091B0003091F0
:10040000B1002417350710F061E001C09A01809116
:10041000C400882341F08091BE009091BF008217F4
:10042000930708F062E0862F08950F931F930FB58E
:1004300080916F00801718F4102F181B03C0182F1D
:100440001095100F20916200309163001216130670
:100450007CF5812F90E0821793073CF4281B390B21
:1004600030936300209362004DC0C59838DF9093AD
:10047000630080936200892B09F044C08091700072
:1004800090917100009719F42DE033E002C022E44E
:100490003FE03093630020936200892B21F080912C
:1004A0007B0080FD2FC088279927821B930B26C0D5
:1004B0002115310539F1412F50E088279927841BF8
:1004C000950B281739073CF4420F531F50936300D4
:1004D0004093620017C0C59A02DF90936300809337
:1004E0006200892B79F48091700090917100892BC2
:1004F00019F48DE093E002C082E49FE090936300E2
:10050000809362008091600090916100212F30E023
:100510002817390738F4821B930B9093610080935E
:10052000600004C0109261001092600000936F00A0
:100530001F910F910895CF92DF92EF92FF920F9348
:100540001F93CF93DF936B017A01122F8823C1F0A1
:10055000EB012696CE01EBD5181719F0CE01612FCD
:10056000D0D5E6012796CE01E2D5081719F0CE01C5
:10057000602FC7D5F701608162FD0BC0646005C0C4
:10058000FA01608162FF05C06B7F6083C60105963A
:10059000B8D5DF91CF911F910F91FF90EF90DF9031
:1005A000CF9008952F923F924F925F926F927F92D9
:1005B0008F929F92AF92BF92CF92DF92EF92FF9273
:1005C0000F931F93DF93CF93CDB7DEB72F970FB65F
:1005D000F894DEBF0FBECDBF8C876B011A012D874B
:1005E000902E8E2CCA0105969B878A87A0D5898379
:1005F000F6010680F781E02DFD83EC83FE2DFF736D
:10060000FB832E863F86C1017ED52C01C101029657
:100610009987888778D53C01F1013496FF83EE8372
:10062000CF0185D58A83FD85AF2EBB2467E0E62EFA
:10063000F12CEA20FB20E114F10421F124E0E21680
:10064000F10404F59FB580916E00891718F4981B8A
:10065000892F02C08095890F90E0A0E0B0E05CE0B7
:10066000880F991FAA1FBB1F5A95D1F78059994A25
:10067000A340B04020F081E0F601848717C0F60166
:10068000148614C0F6011486808190E08770907003
:10069000009761F0049754F481E0B101AE014F5F1F
:1006A0005F4F21810B8147DFF6011586F3E0EF16DE
:1006B000F104F9F024E0E216F10434F482E0E816E3
:1006C000F10409F0B3C00AC094E0E916F104E1F0C6
:1006D000E5E0EE16F10409F0A9C074C0F6018081CE
:1006E0008770823021F0F60111861086128621E093
:1006F0009EC0F60180818770833021F0F60111865B
:100700001086128622E093C0A3FE90C0F60180817D
:10071000282F30E0C90187709070049709F086C0D7
:1007200023FD84C0F7E88F16C9F0F81528F025E1FD
:10073000821609F07BC00CC08AE9881629F09CE972
:10074000891609F073C029C08E819F81692D0FC061
:100750008981682F609561708E7F05C08981682FBF
:1007600060956870877F682B69838A859B85C9D46B
:1007700088E1809376001092770084E1809378007E
:1007800086E990E090937A00809379008BE690E080
:100790009093750080937400D4C160918000615F74
:1007A000E3E2E91518F0162F190D01C0162F8CE1A0
:1007B00090E0BDD4811721F08CE190E0612FA1D4AD
:1007C00011BF34C0A3FE32C0F6018081282F30E073
:1007D000C90187709070059749F523FD27C0282D22
:1007E00030E0992D80E0282B392BFAE52E393F0790
:1007F00091F089EE2A38380721F025573641B1F4B7
:1008000005C08C85C1D325E630E089C18FEFBCD30C
:1008100027E630E084C180E0B101AE014F5F5F4F59
:10082000292D0B8188DE29E630E079C120E089811D
:1008300080FD9094EA81EE23D9F0F6013181492DB3
:1008400050E0832F90E0FA816F2F70E0931640F014
:10085000481B590B641775075CF49F2E930E08C054
:10086000841B950B681779071CF4932E8A81981ABC
:10087000682D70E06414750450F0992D80E0607C60
:10088000A30144195509862B972BB20109C0992D54
:1008900080E0607CA20146195709862B972BB30193
:1008A000A5D2F60197838683F1E0EF16F10459F0A3
:1008B00021E0E216F1040CF403C184E0E816F1042F
:1008C0000CF0FEC064C09B81992321F1F601828166
:1008D000882301F1492F50E0282F30E0CA018227F8
:1008E00093278E719070892B49F440FD02C020FD42
:1008F00007C0F6018385833018F00CC020FD0AC0C4
:1009000020FD04C0F6018385833010F0F6011386C4
:1009100021E00AC08091600090916100892B19F458
:1009200083E0F601838720E0F60193859330C0F4DD
:10093000898182FF04C0F6018181981611F483E059
:100940000EC0981620F4913031F082E007C089156E
:1009500038F4923011F483E001C081E0F60183871E
:100960008091600090916100892B19F4222309F491
:10097000A7C0F6018385833008F0A2C08C819D81D9
:10098000978386831486918092819B8399C0F60118
:100990000681178144E0169507954A95E1F782850F
:1009A000882359F56414750438F00415150550F0C2
:1009B0006016710638F021C04016510618F0061571
:1009C0001705D8F48C819D81F60197838683148660
:1009D000918092819B838091790090917A00892BFC
:1009E00009F06EC088E080937600109277008AE06C
:1009F0008093780084E690E053C081E0F60182871E
:100A0000A3FE3EC0808190E0A826B926F7E0AF2281
:100A1000BB24AB28A9F583FD33C0F6016085718541
:100A20006115710519F4118700874AC08E859F856D
:100A30005AD388859985B80156D3F6011186108658
:100A400012866981626069838A859B855AD380E0BA
:100A5000B101AE014F5F5F4F292D0B816CDD88E145
:100A6000809376001092770084E18093780086E985
:100A700090E090937A00809379008BE690E016C026
:100A80008091790090917A00892BD1F488E080934D
:100A900076001092770082E38093780084E190E002
:100AA00090937A008093790084E690E090937500AB
:100AB0008093740081E090E09093630080936200E3
:100AC000F60184858823B1F08181891589F48585B3
:100AD000833310F48F5F8587F6018585823351F467
:100AE00081E0B101AE014F5F5F4F292D0B8123DD06
:100AF000F60115862D85F601208391828B818283F4
:100B00009C85992329F5898190E08870907033E065
:100B1000959587953A95E1F780937B0019C080E120
:100B2000809376001092770082E38093780084E6C9
:100B300090E090937A008093790030937500209331
:100B4000740081E090E090936300809362006ECE29
:100B50002F960FB6F894DEBF0FBECDBFCF91DF91B9
:100B60001F910F91FF90EF90DF90CF90BF90AF90CB
:100B70009F908F907F906F905F904F903F902F90BD
:100B80000895CF92DF92EF92FF920F931F936C0123
:100B900080E06CE970E043E050E0F60120810181E3
:100BA000E28000DD81E06AEA70E04BE050E0F601AF
:100BB00023810481E580F6DC82E068EB70E043E1AC
:100BC00050E0F60126810781E084ECDC05DC382F5B
:100BD0008F3F09F48DC090E06EE070E0AAD2FC0176
:100BE000E456FF4F4581832F90E06EE070E0A1D284
:100BF000FC01E456FF4FE680F78020E0332309F440
:100C000021E0822F90E06EE070E093D2FC01E45688
:100C1000FF4F8485882321F4B0E000E010E018C085
:100C2000822F90E06EE070E084D2FC01E456FF4F2A
:100C3000B581822F90E06EE070E07BD2FC01E4563B
:100C4000FF4F0681178116950795169507952F5F1B
:100C5000231709F42F5F822F90E06EE070E069D2D5
:100C6000FC01E456FF4F8485882321F4A0E020E0B6
:100C700030E020C0822F90E06EE070E05AD2FC019C
:100C8000E456FF4FA581822F90E06EE070E051D2D4
:100C9000FC01E456FF4F268137813695279536951E
:100CA00027950217130730F48B2FBA2FA82FC801EE
:100CB00089019C01F701F695E795F695E795E01B0C
:100CC000F10B021B130B2115310511F421E030E06B
:100CD0000115110511F401E010E0309711F4E1E085
:100CE000F0E08FB580936E008A2F6B2F7F01A6DA1C
:100CF0001F910F91FF90EF90DF90CF9008950F9389
:100D00001F93CF93DF9381B780938000F3D0BD9A78
:100D1000C598C59AB8DA8DE080BF1FBC8FEF8DBD36
:100D200070D18CE190E003D2482F8091800084172D
:100D300048F4242F30E090E0C2968217930714F015
:100D400041BF03C081B7815F81BF8091720090E095
:100D50006BE070E0EED18C010A571F4F88B3887F9B
:100D600088BB63DBD5D08FB58D538EBD88B78064CB
:100D700088BF89B7806489BFC80168E486D9EC015F
:100D800080E090E098D089B78F7B89BFCAD0C83403
:100D9000D105B8F0CE0168E4F80141852285CAD0BA
:100DA000882379F010937100009370008091720095
:100DB00090E00196817090708093720010927300A1
:100DC0000CC080917300843120F48F5F8093730096
:100DD00004C0109271001092700080917000909188
:100DE0007100009709F4B1CFCCDEAFCFEF92FF9244
:100DF0000F931F93FC012223C1F0223059F424EFFA
:100E0000E22E21E0F22E012D112D60ED77E080E041
:100E100090E011C098EEE92E93E0F92E012D112DEE
:100E200068EE73E080E090E006C07B0100E010E037
:100E3000BA0180E090E09F0140E050E08CD12FEFBC
:100E40003FEF40E050E0ACD12E0D3F1D401F511F41
:100E500084E0220F331F441F551F8A95D1F7C90123
:100E60001F910F91FF90EF9008951F920F920FB670
:100E70000F9211248F939F93AF93BF9380917C0027
:100E800090917D00A0917E00B0917F0080539F4F94
:100E9000AF4FBF4F80937C0090937D00A0937E0066
:100EA000B0937F00BF91AF919F918F910F900FBE34
:100EB0000F901F9018958034910591F08134910521
:100EC00018F4019759F408C021E08030920751F0DE
:100ED0008050944019F408C091E007C090E005C02C
:100EE00093E003C094E001C095E083B7887F982B1E
:100EF00093BF089580ED89BD8AB582608ABD83B7AE
:100F0000816083BF89B7806189BF12BE78940895DC
:100F100080E090E0D0DF89B78F7E89BF8FEF89BDF9
:100F2000089580ED89BD89B7806189BF81E090E037
:100F3000C2DF0895AC018091810090918200481732
:100F4000590771F4809185008B3080F48F5F809316
:100F500085008A3059F4509384004093830006C082
:100F6000509382004093810010928500209183006D
:100F7000309184004217530711F481E0089580E016
:100F8000232B09F481E00895EF92FF920F931F93B2
:100F9000CF93DF938330F8F490E053E0880F991FEC
:100FA0005A95E1F748E3E42E40E0F42EE80EF91EEE
:100FB0008C010D5F1F4FC0E0D0E0F7016491C801C4
:100FC000A0D021960894E11CF11C0F5F1F4FC83080
:100FD000D10599F70FC0C0E0D0E0FE01EB5CFF4FF8
:100FE000E491CE01805090406E2F8BD02196CB3172
:100FF000D10599F7DF91CF911F910F91FF90EF905D
:101000000895AF92BF92CF92DF92EF92FF920F932B
:101010001F93CF93DF9380E090E089D0C5E3D0E0C9
:10102000FE019491891789F481E090E080D02196A7
:10103000FE0194912197891741F482E090E077D0E6
:101040002296FE019491891711F08FEF9DDF7DE9C3
:10105000E72E70E0F72EAA24BB24850163E0000F81
:10106000111F6A95E1F7C8018D5F9F4F4CD06C014D
:10107000C8018B5F9F4F47D0EC01C801875F9F4F2E
:1010800056D0F7018083C801865F9F4F50D0F7018B
:1010900081839081CC15DD0530F0CC19DD0980E02D
:1010A000B601AE0105C0CC1ADD0A80E0BE01A60182
:1010B00020E09CDEF701968385830894A11CB11C77
:1010C0008EE090E0E80EF91E93E0A916B10429F62F
:1010D000DF91CF911F910F91FF90EF90DF90CF9014
:1010E000BF90AF900895FF920F931F93F72E8C013E
:1010F00081D0C80101966F2D7DD01F910F91FF9077
:10110000089578D00895FF920F931F938C01019654
:1011100069D0F82EC80166D05F2D40E0282F30E05E
:10112000242B352BC9011F910F91FF9008955AD0A0
:1011300008955527002480FF02C0060E571F660F32
:10114000771F6115710521F096958795009799F79E
:10115000952F802D0895FF27EE27BB27AA2760FF34
:1011600004C0A20FB31FE41FF51F220F331F441F3B
:10117000551F969587957795679589F70097760718
:1011800071F7CF01BD010895991B79E004C0991F43
:10119000961708F0961B881F7A95C9F780950895D1
:1011A000A1E21A2EAA1BBB1BFD010DC0AA1FBB1F6B
:1011B000EE1FFF1FA217B307E407F50720F0A21BDD
:1011C000B30BE40BF50B661F771F881F991F1A944A
:1011D00069F760957095809590959B01AC01BD0174
:1011E000CF010895E199FECF9FBB8EBBE09A99276E
:1011F0008DB30895262FE199FECF1CBA9FBB8EBBFD
:101200002DBB0FB6F894E29AE19A0FBE01960895AD
:04121000F894FFCF80
:0E12140096984B4C55010001400150015500C9
:00000001FF
